{
  "contractName": "FreelancePlatform",
  "abi": [
    {
      "anonymous": false,
      "inputs": [
        {
          "indexed": true,
          "internalType": "uint256",
          "name": "id",
          "type": "uint256"
        },
        {
          "indexed": true,
          "internalType": "address",
          "name": "freelancer",
          "type": "address"
        }
      ],
      "name": "JobAccepted",
      "type": "event"
    },
    {
      "anonymous": false,
      "inputs": [
        {
          "indexed": true,
          "internalType": "uint256",
          "name": "id",
          "type": "uint256"
        }
      ],
      "name": "JobCancelled",
      "type": "event"
    },
    {
      "anonymous": false,
      "inputs": [
        {
          "indexed": true,
          "internalType": "uint256",
          "name": "id",
          "type": "uint256"
        }
      ],
      "name": "JobCompleted",
      "type": "event"
    },
    {
      "anonymous": false,
      "inputs": [
        {
          "indexed": true,
          "internalType": "uint256",
          "name": "id",
          "type": "uint256"
        },
        {
          "indexed": true,
          "internalType": "address",
          "name": "client",
          "type": "address"
        },
        {
          "indexed": false,
          "internalType": "uint256",
          "name": "amount",
          "type": "uint256"
        },
        {
          "indexed": false,
          "internalType": "string",
          "name": "title",
          "type": "string"
        }
      ],
      "name": "JobCreated",
      "type": "event"
    },
    {
      "anonymous": false,
      "inputs": [
        {
          "indexed": true,
          "internalType": "uint256",
          "name": "id",
          "type": "uint256"
        },
        {
          "indexed": true,
          "internalType": "address",
          "name": "freelancer",
          "type": "address"
        },
        {
          "indexed": false,
          "internalType": "uint256",
          "name": "amount",
          "type": "uint256"
        }
      ],
      "name": "PayoutReleased",
      "type": "event"
    },
    {
      "anonymous": false,
      "inputs": [
        {
          "indexed": true,
          "internalType": "uint256",
          "name": "id",
          "type": "uint256"
        },
        {
          "indexed": false,
          "internalType": "string",
          "name": "workUri",
          "type": "string"
        }
      ],
      "name": "WorkSubmitted",
      "type": "event"
    },
    {
      "inputs": [
        {
          "internalType": "uint256",
          "name": "",
          "type": "uint256"
        }
      ],
      "name": "jobs",
      "outputs": [
        {
          "internalType": "uint256",
          "name": "id",
          "type": "uint256"
        },
        {
          "internalType": "address",
          "name": "client",
          "type": "address"
        },
        {
          "internalType": "address",
          "name": "freelancer",
          "type": "address"
        },
        {
          "internalType": "uint256",
          "name": "amount",
          "type": "uint256"
        },
        {
          "internalType": "enum FreelancePlatform.Status",
          "name": "status",
          "type": "uint8"
        },
        {
          "internalType": "string",
          "name": "title",
          "type": "string"
        },
        {
          "internalType": "string",
          "name": "description",
          "type": "string"
        },
        {
          "internalType": "uint256",
          "name": "deadline",
          "type": "uint256"
        },
        {
          "internalType": "string",
          "name": "workUri",
          "type": "string"
        }
      ],
      "stateMutability": "view",
      "type": "function",
      "constant": true
    },
    {
      "inputs": [],
      "name": "nextJobId",
      "outputs": [
        {
          "internalType": "uint256",
          "name": "",
          "type": "uint256"
        }
      ],
      "stateMutability": "view",
      "type": "function",
      "constant": true
    },
    {
      "inputs": [
        {
          "internalType": "string",
          "name": "_title",
          "type": "string"
        },
        {
          "internalType": "string",
          "name": "_description",
          "type": "string"
        },
        {
          "internalType": "uint256",
          "name": "_deadline",
          "type": "uint256"
        }
      ],
      "name": "createJob",
      "outputs": [],
      "stateMutability": "payable",
      "type": "function",
      "payable": true
    },
    {
      "inputs": [
        {
          "internalType": "uint256",
          "name": "_jobId",
          "type": "uint256"
        }
      ],
      "name": "acceptJob",
      "outputs": [],
      "stateMutability": "nonpayable",
      "type": "function"
    },
    {
      "inputs": [
        {
          "internalType": "uint256",
          "name": "_jobId",
          "type": "uint256"
        },
        {
          "internalType": "string",
          "name": "_workUri",
          "type": "string"
        }
      ],
      "name": "submitWork",
      "outputs": [],
      "stateMutability": "nonpayable",
      "type": "function"
    },
    {
      "inputs": [
        {
          "internalType": "uint256",
          "name": "_jobId",
          "type": "uint256"
        }
      ],
      "name": "markCompleted",
      "outputs": [],
      "stateMutability": "nonpayable",
      "type": "function"
    },
    {
      "inputs": [
        {
          "internalType": "uint256",
          "name": "_jobId",
          "type": "uint256"
        }
      ],
      "name": "cancelJob",
      "outputs": [],
      "stateMutability": "nonpayable",
      "type": "function"
    },
    {
      "inputs": [
        {
          "internalType": "uint256",
          "name": "_jobId",
          "type": "uint256"
        }
      ],
      "name": "getJob",
      "outputs": [
        {
          "internalType": "uint256",
          "name": "id",
          "type": "uint256"
        },
        {
          "internalType": "address",
          "name": "client",
          "type": "address"
        },
        {
          "internalType": "address",
          "name": "freelancer",
          "type": "address"
        },
        {
          "internalType": "uint256",
          "name": "amount",
          "type": "uint256"
        },
        {
          "internalType": "enum FreelancePlatform.Status",
          "name": "status",
          "type": "uint8"
        },
        {
          "internalType": "string",
          "name": "title",
          "type": "string"
        },
        {
          "internalType": "string",
          "name": "description",
          "type": "string"
        },
        {
          "internalType": "uint256",
          "name": "deadline",
          "type": "uint256"
        },
        {
          "internalType": "string",
          "name": "workUri",
          "type": "string"
        }
      ],
      "stateMutability": "view",
      "type": "function",
      "constant": true
    }
  ],
  "bytecode": "0x608060405234801561001057600080fd5b50612144806100206000396000f3fe60806040526004361061007b5760003560e01c8063b0c2aa5e1161004e578063b0c2aa5e14610133578063bf22c4571461015e578063cac5c512146101a3578063da8accf9146101cc5761007b565b8063180aedf3146100805780631dffa3dc146100c557806363b2f3c9146100ee57806373a06f4214610117575b600080fd5b34801561008c57600080fd5b506100a760048036038101906100a29190611470565b6101f5565b6040516100bc999897969594939291906115f4565b60405180910390f35b3480156100d157600080fd5b506100ec60048036038101906100e79190611470565b610428565b005b3480156100fa57600080fd5b5061011560048036038101906101109190611470565b6106e0565b005b610131600480360381019061012c91906116fb565b610962565b005b34801561013f57600080fd5b50610148610c69565b6040516101559190611790565b60405180910390f35b34801561016a57600080fd5b5061018560048036038101906101809190611470565b610c6f565b60405161019a999897969594939291906115f4565b60405180910390f35b3480156101af57600080fd5b506101ca60048036038101906101c59190611470565b610f63565b005b3480156101d857600080fd5b506101f360048036038101906101ee91906117ab565b611264565b005b60016020528060005260406000206000915090508060000154908060010160009054906101000a900473ffffffffffffffffffffffffffffffffffffffff16908060020160009054906101000a900473ffffffffffffffffffffffffffffffffffffffff16908060030154908060040160009054906101000a900460ff16908060050180546102839061183a565b80601f01602080910402602001604051908101604052809291908181526020018280546102af9061183a565b80156102fc5780601f106102d1576101008083540402835291602001916102fc565b820191906000526020600020905b8154815290600101906020018083116102df57829003601f168201915b5050505050908060060180546103119061183a565b80601f016020809104026020016040519081016040528092919081815260200182805461033d9061183a565b801561038a5780601f1061035f5761010080835404028352916020019161038a565b820191906000526020600020905b81548152906001019060200180831161036d57829003601f168201915b5050505050908060070154908060080180546103a59061183a565b80601f01602080910402602001604051908101604052809291908181526020018280546103d19061183a565b801561041e5780601f106103f35761010080835404028352916020019161041e565b820191906000526020600020905b81548152906001019060200180831161040157829003601f168201915b5050505050905089565b806001600082815260200190815260200160002060010160009054906101000a900473ffffffffffffffffffffffffffffffffffffffff1673ffffffffffffffffffffffffffffffffffffffff163373ffffffffffffffffffffffffffffffffffffffff16146104cd576040517f08c379a00000000000000000000000000000000000000000000000000000000081526004016104c4906118b7565b60405180910390fd5b6000600160008481526020019081526020016000209050600060048111156104f8576104f76114ed565b5b8160040160009054906101000a900460ff16600481111561051c5761051b6114ed565b5b148061055d575060026004811115610537576105366114ed565b5b8160040160009054906101000a900460ff16600481111561055b5761055a6114ed565b5b145b61059c576040517f08c379a000000000000000000000000000000000000000000000000000000000815260040161059390611923565b60405180910390fd5b60048160040160006101000a81548160ff021916908360048111156105c4576105c36114ed565b5b02179055506000816003015490506000826003018190555060008260010160009054906101000a900473ffffffffffffffffffffffffffffffffffffffff1673ffffffffffffffffffffffffffffffffffffffff168260405161062690611974565b60006040518083038185875af1925050503d8060008114610663576040519150601f19603f3d011682016040523d82523d6000602084013e610668565b606091505b50509050806106ac576040517f08c379a00000000000000000000000000000000000000000000000000000000081526004016106a3906119d5565b60405180910390fd5b847f58243f872c550ad02802199ade99eb4250f6bb19e9abbf2d3de7b969c0eb5e4f60405160405180910390a25050505050565b8060008060048111156106f6576106f56114ed565b5b6001600084815260200190815260200160002060040160009054906101000a900460ff16600481111561072c5761072b6114ed565b5b1461076c576040517f08c379a000000000000000000000000000000000000000000000000000000000815260040161076390611a41565b60405180910390fd5b6000600160008581526020019081526020016000209050600073ffffffffffffffffffffffffffffffffffffffff168160010160009054906101000a900473ffffffffffffffffffffffffffffffffffffffff1673ffffffffffffffffffffffffffffffffffffffff1603610816576040517f08c379a000000000000000000000000000000000000000000000000000000000815260040161080d90611aad565b60405180910390fd5b8060010160009054906101000a900473ffffffffffffffffffffffffffffffffffffffff1673ffffffffffffffffffffffffffffffffffffffff163373ffffffffffffffffffffffffffffffffffffffff16036108a8576040517f08c379a000000000000000000000000000000000000000000000000000000000815260040161089f90611b19565b60405180910390fd5b338160020160006101000a81548173ffffffffffffffffffffffffffffffffffffffff021916908373ffffffffffffffffffffffffffffffffffffffff16021790555060018160040160006101000a81548160ff02191690836004811115610913576109126114ed565b5b02179055503373ffffffffffffffffffffffffffffffffffffffff16847f4426e4a90a9570c8f678a263b11785eaaade8b79d76d18c43d4d8e00062e4f8360405160405180910390a350505050565b600034116109a5576040517f08c379a000000000000000000000000000000000000000000000000000000000815260040161099c90611b85565b60405180910390fd5b6000805490506040518061012001604052808281526020013373ffffffffffffffffffffffffffffffffffffffff168152602001600073ffffffffffffffffffffffffffffffffffffffff16815260200134815260200160006004811115610a1057610a0f6114ed565b5b815260200187878080601f016020809104026020016040519081016040528093929190818152602001838380828437600081840152601f19601f82011690508083019250505050505050815260200185858080601f016020809104026020016040519081016040528093929190818152602001838380828437600081840152601f19601f82011690508083019250505050505050815260200183815260200160405180602001604052806000815250815250600160008381526020019081526020016000206000820151816000015560208201518160010160006101000a81548173ffffffffffffffffffffffffffffffffffffffff021916908373ffffffffffffffffffffffffffffffffffffffff16021790555060408201518160020160006101000a81548173ffffffffffffffffffffffffffffffffffffffff021916908373ffffffffffffffffffffffffffffffffffffffff1602179055506060820151816003015560808201518160040160006101000a81548160ff02191690836004811115610ba257610ba16114ed565b5b021790555060a0820151816005019081610bbc9190611d80565b5060c0820151816006019081610bd29190611d80565b5060e08201518160070155610100820151816008019081610bf39190611d80565b50905050600080815480929190610c0990611e81565b91905055503373ffffffffffffffffffffffffffffffffffffffff16817f6f3a5227c058380f6d30b3c63e04e4b049f2df6d1780f11e4ff1b3e9728a3652348989604051610c5993929190611f05565b60405180910390a3505050505050565b60005481565b6000806000806000606080600060606000600160008c81526020019081526020016000209050600073ffffffffffffffffffffffffffffffffffffffff168160010160009054906101000a900473ffffffffffffffffffffffffffffffffffffffff1673ffffffffffffffffffffffffffffffffffffffff1603610d28576040517f08c379a0000000000000000000000000000000000000000000000000000000008152600401610d1f90611aad565b60405180910390fd5b80600001548160010160009054906101000a900473ffffffffffffffffffffffffffffffffffffffff168260020160009054906101000a900473ffffffffffffffffffffffffffffffffffffffff1683600301548460040160009054906101000a900460ff168560050186600601876007015488600801838054610dab9061183a565b80601f0160208091040260200160405190810160405280929190818152602001828054610dd79061183a565b8015610e245780601f10610df957610100808354040283529160200191610e24565b820191906000526020600020905b815481529060010190602001808311610e0757829003601f168201915b50505050509350828054610e379061183a565b80601f0160208091040260200160405190810160405280929190818152602001828054610e639061183a565b8015610eb05780601f10610e8557610100808354040283529160200191610eb0565b820191906000526020600020905b815481529060010190602001808311610e9357829003601f168201915b50505050509250808054610ec39061183a565b80601f0160208091040260200160405190810160405280929190818152602001828054610eef9061183a565b8015610f3c5780601f10610f1157610100808354040283529160200191610f3c565b820191906000526020600020905b815481529060010190602001808311610f1f57829003601f168201915b50505050509050995099509950995099509950995099509950509193959799909294969850565b806001600082815260200190815260200160002060010160009054906101000a900473ffffffffffffffffffffffffffffffffffffffff1673ffffffffffffffffffffffffffffffffffffffff163373ffffffffffffffffffffffffffffffffffffffff1614611008576040517f08c379a0000000000000000000000000000000000000000000000000000000008152600401610fff906118b7565b60405180910390fd5b81600280600481111561101e5761101d6114ed565b5b6001600084815260200190815260200160002060040160009054906101000a900460ff166004811115611054576110536114ed565b5b14611094576040517f08c379a000000000000000000000000000000000000000000000000000000000815260040161108b90611a41565b60405180910390fd5b600060016000868152602001908152602001600020905060038160040160006101000a81548160ff021916908360048111156110d3576110d26114ed565b5b02179055506000816003015490506000826003018190555060008260020160009054906101000a900473ffffffffffffffffffffffffffffffffffffffff1673ffffffffffffffffffffffffffffffffffffffff168260405161113590611974565b60006040518083038185875af1925050503d8060008114611172576040519150601f19603f3d011682016040523d82523d6000602084013e611177565b606091505b50509050806111bb576040517f08c379a00000000000000000000000000000000000000000000000000000000081526004016111b290611f83565b60405180910390fd5b867f02244c8529cb95e213ee542e76e7776342b3dabd10203d01472bbf4441be892960405160405180910390a28260020160009054906101000a900473ffffffffffffffffffffffffffffffffffffffff1673ffffffffffffffffffffffffffffffffffffffff16877f5621778ab13fbf7130d91ae5035a140b79a6cfd120059c2ea0fec2a5ce6731a6846040516112539190611790565b60405180910390a350505050505050565b826001600082815260200190815260200160002060020160009054906101000a900473ffffffffffffffffffffffffffffffffffffffff1673ffffffffffffffffffffffffffffffffffffffff163373ffffffffffffffffffffffffffffffffffffffff1614611309576040517f08c379a000000000000000000000000000000000000000000000000000000000815260040161130090611fef565b60405180910390fd5b83600180600481111561131f5761131e6114ed565b5b6001600084815260200190815260200160002060040160009054906101000a900460ff166004811115611355576113546114ed565b5b14611395576040517f08c379a000000000000000000000000000000000000000000000000000000000815260040161138c90611a41565b60405180910390fd5b600060016000888152602001908152602001600020905060028160040160006101000a81548160ff021916908360048111156113d4576113d36114ed565b5b021790555085858260080191826113ec92919061201a565b50867f3822c71b106c7c1dabf7f076e68c9bd98c45d0cd0d073f4dcdaf422a0fe55847878760405161141f9291906120ea565b60405180910390a250505050505050565b600080fd5b600080fd5b6000819050919050565b61144d8161143a565b811461145857600080fd5b50565b60008135905061146a81611444565b92915050565b60006020828403121561148657611485611430565b5b60006114948482850161145b565b91505092915050565b6114a68161143a565b82525050565b600073ffffffffffffffffffffffffffffffffffffffff82169050919050565b60006114d7826114ac565b9050919050565b6114e7816114cc565b82525050565b7f4e487b7100000000000000000000000000000000000000000000000000000000600052602160045260246000fd5b6005811061152d5761152c6114ed565b5b50565b600081905061153e8261151c565b919050565b600061154e82611530565b9050919050565b61155e81611543565b82525050565b600081519050919050565b600082825260208201905092915050565b60005b8381101561159e578082015181840152602081019050611583565b60008484015250505050565b6000601f19601f8301169050919050565b60006115c682611564565b6115d0818561156f565b93506115e0818560208601611580565b6115e9816115aa565b840191505092915050565b60006101208201905061160a600083018c61149d565b611617602083018b6114de565b611624604083018a6114de565b611631606083018961149d565b61163e6080830188611555565b81810360a083015261165081876115bb565b905081810360c083015261166481866115bb565b905061167360e083018561149d565b81810361010083015261168681846115bb565b90509a9950505050505050505050565b600080fd5b600080fd5b600080fd5b60008083601f8401126116bb576116ba611696565b5b8235905067ffffffffffffffff8111156116d8576116d761169b565b5b6020830191508360018202830111156116f4576116f36116a0565b5b9250929050565b60008060008060006060868803121561171757611716611430565b5b600086013567ffffffffffffffff81111561173557611734611435565b5b611741888289016116a5565b9550955050602086013567ffffffffffffffff81111561176457611763611435565b5b611770888289016116a5565b935093505060406117838882890161145b565b9150509295509295909350565b60006020820190506117a5600083018461149d565b92915050565b6000806000604084860312156117c4576117c3611430565b5b60006117d28682870161145b565b935050602084013567ffffffffffffffff8111156117f3576117f2611435565b5b6117ff868287016116a5565b92509250509250925092565b7f4e487b7100000000000000000000000000000000000000000000000000000000600052602260045260246000fd5b6000600282049050600182168061185257607f821691505b6020821081036118655761186461180b565b5b50919050565b7f4e6f74206a6f6220636c69656e74000000000000000000000000000000000000600082015250565b60006118a1600e8361156f565b91506118ac8261186b565b602082019050919050565b600060208201905081810360008301526118d081611894565b9050919050565b7f43616e6e6f742063616e63656c20617420746869732073746167650000000000600082015250565b600061190d601b8361156f565b9150611918826118d7565b602082019050919050565b6000602082019050818103600083015261193c81611900565b9050919050565b600081905092915050565b50565b600061195e600083611943565b91506119698261194e565b600082019050919050565b600061197f82611951565b9150819050919050565b7f526566756e64206661696c656400000000000000000000000000000000000000600082015250565b60006119bf600d8361156f565b91506119ca82611989565b602082019050919050565b600060208201905081810360008301526119ee816119b2565b9050919050565b7f496e76616c6964206a6f62207374617475730000000000000000000000000000600082015250565b6000611a2b60128361156f565b9150611a36826119f5565b602082019050919050565b60006020820190508181036000830152611a5a81611a1e565b9050919050565b7f4a6f6220646f6573206e6f742065786973740000000000000000000000000000600082015250565b6000611a9760128361156f565b9150611aa282611a61565b602082019050919050565b60006020820190508181036000830152611ac681611a8a565b9050919050565b7f436c69656e742063616e6e6f7420616363657074206f776e206a6f6200000000600082015250565b6000611b03601c8361156f565b9150611b0e82611acd565b602082019050919050565b60006020820190508181036000830152611b3281611af6565b9050919050565b7f4d7573742073656e64207061796d656e74000000000000000000000000000000600082015250565b6000611b6f60118361156f565b9150611b7a82611b39565b602082019050919050565b60006020820190508181036000830152611b9e81611b62565b9050919050565b7f4e487b7100000000000000000000000000000000000000000000000000000000600052604160045260246000fd5b60008190508160005260206000209050919050565b60006020601f8301049050919050565b600082821b905092915050565b600060088302611c367fffffffffffffffffffffffffffffffffffffffffffffffffffffffffffffffff82611bf9565b611c408683611bf9565b95508019841693508086168417925050509392505050565b6000819050919050565b6000611c7d611c78611c738461143a565b611c58565b61143a565b9050919050565b6000819050919050565b611c9783611c62565b611cab611ca382611c84565b848454611c06565b825550505050565b600090565b611cc0611cb3565b611ccb818484611c8e565b505050565b5b81811015611cef57611ce4600082611cb8565b600181019050611cd1565b5050565b601f821115611d3457611d0581611bd4565b611d0e84611be9565b81016020851015611d1d578190505b611d31611d2985611be9565b830182611cd0565b50505b505050565b600082821c905092915050565b6000611d5760001984600802611d39565b1980831691505092915050565b6000611d708383611d46565b9150826002028217905092915050565b611d8982611564565b67ffffffffffffffff811115611da257611da1611ba5565b5b611dac825461183a565b611db7828285611cf3565b600060209050601f831160018114611dea5760008415611dd8578287015190505b611de28582611d64565b865550611e4a565b601f198416611df886611bd4565b60005b82811015611e2057848901518255600182019150602085019450602081019050611dfb565b86831015611e3d5784890151611e39601f891682611d46565b8355505b6001600288020188555050505b505050505050565b7f4e487b7100000000000000000000000000000000000000000000000000000000600052601160045260246000fd5b6000611e8c8261143a565b91507fffffffffffffffffffffffffffffffffffffffffffffffffffffffffffffffff8203611ebe57611ebd611e52565b5b600182019050919050565b82818337600083830152505050565b6000611ee4838561156f565b9350611ef1838584611ec9565b611efa836115aa565b840190509392505050565b6000604082019050611f1a600083018661149d565b8181036020830152611f2d818486611ed8565b9050949350505050565b7f5061796f7574206661696c656400000000000000000000000000000000000000600082015250565b6000611f6d600d8361156f565b9150611f7882611f37565b602082019050919050565b60006020820190508181036000830152611f9c81611f60565b9050919050565b7f4e6f74206a6f6220667265656c616e6365720000000000000000000000000000600082015250565b6000611fd960128361156f565b9150611fe482611fa3565b602082019050919050565b6000602082019050818103600083015261200881611fcc565b9050919050565b600082905092915050565b612024838361200f565b67ffffffffffffffff81111561203d5761203c611ba5565b5b612047825461183a565b612052828285611cf3565b6000601f831160018114612081576000841561206f578287013590505b6120798582611d64565b8655506120e1565b601f19841661208f86611bd4565b60005b828110156120b757848901358255600182019150602085019450602081019050612092565b868310156120d457848901356120d0601f891682611d46565b8355505b6001600288020188555050505b50505050505050565b60006020820190508181036000830152612105818486611ed8565b9050939250505056fea264697066735822122055f7119cfb62b376d8be214c02ff3677f08b675836ae46960993dd21b6b53b8d64736f6c63430008130033",
  "immutableReferences": {},
  "source": "pragma solidity ^0.8.19;\r\n\r\ncontract FreelancePlatform {\r\n    enum Status {\r\n        Open,        \r\n        InProgress,  \r\n        Submitted,   \r\n        Completed,   \r\n        Cancelled    \r\n    }\r\n\r\n    struct Job {\r\n        uint256 id;\r\n        address client;\r\n        address freelancer;\r\n        uint256 amount;      \r\n        Status status;\r\n        string title;\r\n        string description;\r\n        uint256 deadline;\r\n        string workUri;       \r\n    }\r\n\r\n    uint256 public nextJobId;\r\n    mapping(uint256 => Job) public jobs;\r\n\r\n    event JobCreated(\r\n        uint256 indexed id,\r\n        address indexed client,\r\n        uint256 amount,\r\n        string title\r\n    );\r\n    event JobAccepted(uint256 indexed id, address indexed freelancer);\r\n    event WorkSubmitted(uint256 indexed id, string workUri);\r\n    event JobCompleted(uint256 indexed id);\r\n    event JobCancelled(uint256 indexed id);\r\n    event PayoutReleased(uint256 indexed id, address indexed freelancer, uint256 amount);\r\n\r\n    modifier onlyClient(uint256 _jobId) {\r\n        require(msg.sender == jobs[_jobId].client, \"Not job client\");\r\n        _;\r\n    }\r\n\r\n    modifier onlyFreelancer(uint256 _jobId) {\r\n        require(msg.sender == jobs[_jobId].freelancer, \"Not job freelancer\");\r\n        _;\r\n    }\r\n\r\n    modifier inStatus(uint256 _jobId, Status _status) {\r\n        require(jobs[_jobId].status == _status, \"Invalid job status\");\r\n        _;\r\n    }\r\n\r\n    function createJob(\r\n        string calldata _title,\r\n        string calldata _description,\r\n        uint256 _deadline\r\n    ) external payable {\r\n        require(msg.value > 0, \"Must send payment\");\r\n\r\n        uint256 jobId = nextJobId;\r\n        jobs[jobId] = Job({\r\n            id: jobId,\r\n            client: msg.sender,\r\n            freelancer: address(0),\r\n            amount: msg.value,\r\n            status: Status.Open,\r\n            title: _title,\r\n            description: _description,\r\n            deadline: _deadline,\r\n            workUri: \"\"\r\n        });\r\n        nextJobId++;\r\n\r\n        emit JobCreated(jobId, msg.sender, msg.value, _title);\r\n    }\r\n\r\n    function acceptJob(uint256 _jobId)\r\n        external\r\n        inStatus(_jobId, Status.Open)\r\n    {\r\n        Job storage job = jobs[_jobId];\r\n        require(job.client != address(0), \"Job does not exist\");\r\n        require(msg.sender != job.client, \"Client cannot accept own job\");\r\n\r\n        job.freelancer = msg.sender;\r\n        job.status = Status.InProgress;\r\n\r\n        emit JobAccepted(_jobId, msg.sender);\r\n    }\r\n\r\n    function submitWork(uint256 _jobId, string calldata _workUri)\r\n        external\r\n        onlyFreelancer(_jobId)\r\n        inStatus(_jobId, Status.InProgress)\r\n    {\r\n        Job storage job = jobs[_jobId];\r\n        job.status = Status.Submitted;\r\n        job.workUri = _workUri;\r\n\r\n        emit WorkSubmitted(_jobId, _workUri);\r\n    }\r\n\r\n    /// @notice client accepts submitted work and pays freelancer\r\n    function markCompleted(uint256 _jobId)\r\n        external\r\n        onlyClient(_jobId)\r\n        inStatus(_jobId, Status.Submitted)\r\n    {\r\n        Job storage job = jobs[_jobId];\r\n        job.status = Status.Completed;\r\n\r\n        uint256 amount = job.amount;\r\n        job.amount = 0;\r\n\r\n        (bool sent, ) = job.freelancer.call{value: amount}(\"\");\r\n        require(sent, \"Payout failed\");\r\n\r\n        emit JobCompleted(_jobId);\r\n        emit PayoutReleased(_jobId, job.freelancer, amount);\r\n    }\r\n\r\n    function cancelJob(uint256 _jobId)\r\n        external\r\n        onlyClient(_jobId)\r\n    {\r\n        Job storage job = jobs[_jobId];\r\n\r\n        require(\r\n            job.status == Status.Open || job.status == Status.Submitted,\r\n            \"Cannot cancel at this stage\"\r\n        );\r\n\r\n        job.status = Status.Cancelled;\r\n\r\n        uint256 amount = job.amount;\r\n        job.amount = 0;\r\n\r\n        (bool sent, ) = job.client.call{value: amount}(\"\");\r\n        require(sent, \"Refund failed\");\r\n\r\n        emit JobCancelled(_jobId);\r\n    }\r\n\r\n \r\n\r\n    function getJob(uint256 _jobId)\r\n        external\r\n        view\r\n        returns (\r\n            uint256 id,\r\n            address client,\r\n            address freelancer,\r\n            uint256 amount,\r\n            Status status,\r\n            string memory title,\r\n            string memory description,\r\n            uint256 deadline,\r\n            string memory workUri\r\n        )\r\n    {\r\n        Job storage j = jobs[_jobId];\r\n        require(j.client != address(0), \"Job does not exist\");\r\n        return (\r\n            j.id,\r\n            j.client,\r\n            j.freelancer,\r\n            j.amount,\r\n            j.status,\r\n            j.title,\r\n            j.description,\r\n            j.deadline,\r\n            j.workUri\r\n        );\r\n    }\r\n}\r\n",
  "sourcePath": "C:\\Users\\nikab\\OneDrive\\Stalinis kompiuteris\\VU\\2 kursas\\Block chains\\freelance-blockchain\\contracts\\FreelancePlatform.sol",
  "compiler": {
    "name": "solc",
    "version": "0.8.19+commit.7dd6d404.Emscripten.clang"
  },
  "schemaVersion": "3.4.16",
  "updatedAt": "2025-12-11T00:56:17.303Z",
  "networkType": "ethereum",
  "devdoc": {
    "kind": "dev",
    "methods": {},
    "version": 1
  },
  "userdoc": {
    "kind": "user",
    "methods": {
      "markCompleted(uint256)": {
        "notice": "client accepts submitted work and pays freelancer"
      }
    },
    "version": 1
  }
}