{
  "contractName": "FreelancePlatform",
  "abi": [
    {
      "anonymous": false,
      "inputs": [
        {
          "indexed": true,
          "internalType": "uint256",
          "name": "id",
          "type": "uint256"
        },
        {
          "indexed": true,
          "internalType": "address",
          "name": "freelancer",
          "type": "address"
        }
      ],
      "name": "JobAccepted",
      "type": "event"
    },
    {
      "anonymous": false,
      "inputs": [
        {
          "indexed": true,
          "internalType": "uint256",
          "name": "id",
          "type": "uint256"
        }
      ],
      "name": "JobCancelled",
      "type": "event"
    },
    {
      "anonymous": false,
      "inputs": [
        {
          "indexed": true,
          "internalType": "uint256",
          "name": "id",
          "type": "uint256"
        }
      ],
      "name": "JobCompleted",
      "type": "event"
    },
    {
      "anonymous": false,
      "inputs": [
        {
          "indexed": true,
          "internalType": "uint256",
          "name": "id",
          "type": "uint256"
        },
        {
          "indexed": true,
          "internalType": "address",
          "name": "client",
          "type": "address"
        },
        {
          "indexed": false,
          "internalType": "uint256",
          "name": "amount",
          "type": "uint256"
        },
        {
          "indexed": false,
          "internalType": "string",
          "name": "title",
          "type": "string"
        }
      ],
      "name": "JobCreated",
      "type": "event"
    },
    {
      "anonymous": false,
      "inputs": [
        {
          "indexed": true,
          "internalType": "uint256",
          "name": "id",
          "type": "uint256"
        },
        {
          "indexed": true,
          "internalType": "address",
          "name": "freelancer",
          "type": "address"
        },
        {
          "indexed": false,
          "internalType": "uint256",
          "name": "amount",
          "type": "uint256"
        }
      ],
      "name": "PayoutReleased",
      "type": "event"
    },
    {
      "anonymous": false,
      "inputs": [
        {
          "indexed": true,
          "internalType": "uint256",
          "name": "id",
          "type": "uint256"
        },
        {
          "indexed": false,
          "internalType": "string",
          "name": "workUri",
          "type": "string"
        }
      ],
      "name": "WorkSubmitted",
      "type": "event"
    },
    {
      "inputs": [
        {
          "internalType": "uint256",
          "name": "",
          "type": "uint256"
        }
      ],
      "name": "jobs",
      "outputs": [
        {
          "internalType": "uint256",
          "name": "id",
          "type": "uint256"
        },
        {
          "internalType": "address",
          "name": "client",
          "type": "address"
        },
        {
          "internalType": "address",
          "name": "freelancer",
          "type": "address"
        },
        {
          "internalType": "uint256",
          "name": "amount",
          "type": "uint256"
        },
        {
          "internalType": "enum FreelancePlatform.Status",
          "name": "status",
          "type": "uint8"
        },
        {
          "internalType": "string",
          "name": "title",
          "type": "string"
        },
        {
          "internalType": "string",
          "name": "description",
          "type": "string"
        },
        {
          "internalType": "string",
          "name": "workUri",
          "type": "string"
        }
      ],
      "stateMutability": "view",
      "type": "function",
      "constant": true
    },
    {
      "inputs": [],
      "name": "nextJobId",
      "outputs": [
        {
          "internalType": "uint256",
          "name": "",
          "type": "uint256"
        }
      ],
      "stateMutability": "view",
      "type": "function",
      "constant": true
    },
    {
      "inputs": [
        {
          "internalType": "string",
          "name": "_title",
          "type": "string"
        },
        {
          "internalType": "string",
          "name": "_description",
          "type": "string"
        }
      ],
      "name": "createJob",
      "outputs": [],
      "stateMutability": "payable",
      "type": "function",
      "payable": true
    },
    {
      "inputs": [
        {
          "internalType": "uint256",
          "name": "_jobId",
          "type": "uint256"
        }
      ],
      "name": "acceptJob",
      "outputs": [],
      "stateMutability": "nonpayable",
      "type": "function"
    },
    {
      "inputs": [
        {
          "internalType": "uint256",
          "name": "_jobId",
          "type": "uint256"
        },
        {
          "internalType": "string",
          "name": "_workUri",
          "type": "string"
        }
      ],
      "name": "submitWork",
      "outputs": [],
      "stateMutability": "nonpayable",
      "type": "function"
    },
    {
      "inputs": [
        {
          "internalType": "uint256",
          "name": "_jobId",
          "type": "uint256"
        }
      ],
      "name": "markCompleted",
      "outputs": [],
      "stateMutability": "nonpayable",
      "type": "function"
    },
    {
      "inputs": [
        {
          "internalType": "uint256",
          "name": "_jobId",
          "type": "uint256"
        }
      ],
      "name": "cancelJob",
      "outputs": [],
      "stateMutability": "nonpayable",
      "type": "function"
    },
    {
      "inputs": [
        {
          "internalType": "uint256",
          "name": "_jobId",
          "type": "uint256"
        }
      ],
      "name": "getJob",
      "outputs": [
        {
          "internalType": "uint256",
          "name": "id",
          "type": "uint256"
        },
        {
          "internalType": "address",
          "name": "client",
          "type": "address"
        },
        {
          "internalType": "address",
          "name": "freelancer",
          "type": "address"
        },
        {
          "internalType": "uint256",
          "name": "amount",
          "type": "uint256"
        },
        {
          "internalType": "enum FreelancePlatform.Status",
          "name": "status",
          "type": "uint8"
        },
        {
          "internalType": "string",
          "name": "title",
          "type": "string"
        },
        {
          "internalType": "string",
          "name": "description",
          "type": "string"
        },
        {
          "internalType": "string",
          "name": "workUri",
          "type": "string"
        }
      ],
      "stateMutability": "view",
      "type": "function",
      "constant": true
    }
  ],
  "bytecode": "0x608060405234801561001057600080fd5b506120fc806100206000396000f3fe60806040526004361061007b5760003560e01c8063b0c2aa5e1161004e578063b0c2aa5e14610132578063bf22c4571461015d578063cac5c512146101a1578063da8accf9146101ca5761007b565b8063180aedf3146100805780631dffa3dc146100c45780632b1ed581146100ed57806363b2f3c914610109575b600080fd5b34801561008c57600080fd5b506100a760048036038101906100a2919061144b565b6101f3565b6040516100bb9897969594939291906115cf565b60405180910390f35b3480156100d057600080fd5b506100eb60048036038101906100e6919061144b565b610420565b005b610107600480360381019061010291906116c7565b6106d8565b005b34801561011557600080fd5b50610130600480360381019061012b919061144b565b6109cd565b005b34801561013e57600080fd5b50610147610c4f565b6040516101549190611748565b60405180910390f35b34801561016957600080fd5b50610184600480360381019061017f919061144b565b610c55565b6040516101989897969594939291906115cf565b60405180910390f35b3480156101ad57600080fd5b506101c860048036038101906101c3919061144b565b610f3e565b005b3480156101d657600080fd5b506101f160048036038101906101ec9190611763565b61123f565b005b60016020528060005260406000206000915090508060000154908060010160009054906101000a900473ffffffffffffffffffffffffffffffffffffffff16908060020160009054906101000a900473ffffffffffffffffffffffffffffffffffffffff16908060030154908060040160009054906101000a900460ff1690806005018054610281906117f2565b80601f01602080910402602001604051908101604052809291908181526020018280546102ad906117f2565b80156102fa5780601f106102cf576101008083540402835291602001916102fa565b820191906000526020600020905b8154815290600101906020018083116102dd57829003601f168201915b50505050509080600601805461030f906117f2565b80601f016020809104026020016040519081016040528092919081815260200182805461033b906117f2565b80156103885780601f1061035d57610100808354040283529160200191610388565b820191906000526020600020905b81548152906001019060200180831161036b57829003601f168201915b50505050509080600701805461039d906117f2565b80601f01602080910402602001604051908101604052809291908181526020018280546103c9906117f2565b80156104165780601f106103eb57610100808354040283529160200191610416565b820191906000526020600020905b8154815290600101906020018083116103f957829003601f168201915b5050505050905088565b806001600082815260200190815260200160002060010160009054906101000a900473ffffffffffffffffffffffffffffffffffffffff1673ffffffffffffffffffffffffffffffffffffffff163373ffffffffffffffffffffffffffffffffffffffff16146104c5576040517f08c379a00000000000000000000000000000000000000000000000000000000081526004016104bc9061186f565b60405180910390fd5b6000600160008481526020019081526020016000209050600060048111156104f0576104ef6114c8565b5b8160040160009054906101000a900460ff166004811115610514576105136114c8565b5b148061055557506002600481111561052f5761052e6114c8565b5b8160040160009054906101000a900460ff166004811115610553576105526114c8565b5b145b610594576040517f08c379a000000000000000000000000000000000000000000000000000000000815260040161058b906118db565b60405180910390fd5b60048160040160006101000a81548160ff021916908360048111156105bc576105bb6114c8565b5b02179055506000816003015490506000826003018190555060008260010160009054906101000a900473ffffffffffffffffffffffffffffffffffffffff1673ffffffffffffffffffffffffffffffffffffffff168260405161061e9061192c565b60006040518083038185875af1925050503d806000811461065b576040519150601f19603f3d011682016040523d82523d6000602084013e610660565b606091505b50509050806106a4576040517f08c379a000000000000000000000000000000000000000000000000000000000815260040161069b9061198d565b60405180910390fd5b847f58243f872c550ad02802199ade99eb4250f6bb19e9abbf2d3de7b969c0eb5e4f60405160405180910390a25050505050565b6000341161071b576040517f08c379a0000000000000000000000000000000000000000000000000000000008152600401610712906119f9565b60405180910390fd5b6000805490506040518061010001604052808281526020013373ffffffffffffffffffffffffffffffffffffffff168152602001600073ffffffffffffffffffffffffffffffffffffffff16815260200134815260200160006004811115610786576107856114c8565b5b815260200186868080601f016020809104026020016040519081016040528093929190818152602001838380828437600081840152601f19601f82011690508083019250505050505050815260200184848080601f016020809104026020016040519081016040528093929190818152602001838380828437600081840152601f19601f82011690508083019250505050505050815260200160405180602001604052806000815250815250600160008381526020019081526020016000206000820151816000015560208201518160010160006101000a81548173ffffffffffffffffffffffffffffffffffffffff021916908373ffffffffffffffffffffffffffffffffffffffff16021790555060408201518160020160006101000a81548173ffffffffffffffffffffffffffffffffffffffff021916908373ffffffffffffffffffffffffffffffffffffffff1602179055506060820151816003015560808201518160040160006101000a81548160ff02191690836004811115610912576109116114c8565b5b021790555060a082015181600501908161092c9190611bf4565b5060c08201518160060190816109429190611bf4565b5060e08201518160070190816109589190611bf4565b5090505060008081548092919061096e90611cf5565b91905055503373ffffffffffffffffffffffffffffffffffffffff16817f6f3a5227c058380f6d30b3c63e04e4b049f2df6d1780f11e4ff1b3e9728a36523488886040516109be93929190611d79565b60405180910390a35050505050565b8060008060048111156109e3576109e26114c8565b5b6001600084815260200190815260200160002060040160009054906101000a900460ff166004811115610a1957610a186114c8565b5b14610a59576040517f08c379a0000000000000000000000000000000000000000000000000000000008152600401610a5090611df7565b60405180910390fd5b6000600160008581526020019081526020016000209050600073ffffffffffffffffffffffffffffffffffffffff168160010160009054906101000a900473ffffffffffffffffffffffffffffffffffffffff1673ffffffffffffffffffffffffffffffffffffffff1603610b03576040517f08c379a0000000000000000000000000000000000000000000000000000000008152600401610afa90611e63565b60405180910390fd5b8060010160009054906101000a900473ffffffffffffffffffffffffffffffffffffffff1673ffffffffffffffffffffffffffffffffffffffff163373ffffffffffffffffffffffffffffffffffffffff1603610b95576040517f08c379a0000000000000000000000000000000000000000000000000000000008152600401610b8c90611ecf565b60405180910390fd5b338160020160006101000a81548173ffffffffffffffffffffffffffffffffffffffff021916908373ffffffffffffffffffffffffffffffffffffffff16021790555060018160040160006101000a81548160ff02191690836004811115610c0057610bff6114c8565b5b02179055503373ffffffffffffffffffffffffffffffffffffffff16847f4426e4a90a9570c8f678a263b11785eaaade8b79d76d18c43d4d8e00062e4f8360405160405180910390a350505050565b60005481565b600080600080600060608060606000600160008b81526020019081526020016000209050600073ffffffffffffffffffffffffffffffffffffffff168160010160009054906101000a900473ffffffffffffffffffffffffffffffffffffffff1673ffffffffffffffffffffffffffffffffffffffff1603610d0c576040517f08c379a0000000000000000000000000000000000000000000000000000000008152600401610d0390611e63565b60405180910390fd5b80600001548160010160009054906101000a900473ffffffffffffffffffffffffffffffffffffffff168260020160009054906101000a900473ffffffffffffffffffffffffffffffffffffffff1683600301548460040160009054906101000a900460ff16856005018660060187600701828054610d8a906117f2565b80601f0160208091040260200160405190810160405280929190818152602001828054610db6906117f2565b8015610e035780601f10610dd857610100808354040283529160200191610e03565b820191906000526020600020905b815481529060010190602001808311610de657829003601f168201915b50505050509250818054610e16906117f2565b80601f0160208091040260200160405190810160405280929190818152602001828054610e42906117f2565b8015610e8f5780601f10610e6457610100808354040283529160200191610e8f565b820191906000526020600020905b815481529060010190602001808311610e7257829003601f168201915b50505050509150808054610ea2906117f2565b80601f0160208091040260200160405190810160405280929190818152602001828054610ece906117f2565b8015610f1b5780601f10610ef057610100808354040283529160200191610f1b565b820191906000526020600020905b815481529060010190602001808311610efe57829003601f168201915b505050505090509850985098509850985098509850985050919395975091939597565b806001600082815260200190815260200160002060010160009054906101000a900473ffffffffffffffffffffffffffffffffffffffff1673ffffffffffffffffffffffffffffffffffffffff163373ffffffffffffffffffffffffffffffffffffffff1614610fe3576040517f08c379a0000000000000000000000000000000000000000000000000000000008152600401610fda9061186f565b60405180910390fd5b816002806004811115610ff957610ff86114c8565b5b6001600084815260200190815260200160002060040160009054906101000a900460ff16600481111561102f5761102e6114c8565b5b1461106f576040517f08c379a000000000000000000000000000000000000000000000000000000000815260040161106690611df7565b60405180910390fd5b600060016000868152602001908152602001600020905060038160040160006101000a81548160ff021916908360048111156110ae576110ad6114c8565b5b02179055506000816003015490506000826003018190555060008260020160009054906101000a900473ffffffffffffffffffffffffffffffffffffffff1673ffffffffffffffffffffffffffffffffffffffff16826040516111109061192c565b60006040518083038185875af1925050503d806000811461114d576040519150601f19603f3d011682016040523d82523d6000602084013e611152565b606091505b5050905080611196576040517f08c379a000000000000000000000000000000000000000000000000000000000815260040161118d90611f3b565b60405180910390fd5b867f02244c8529cb95e213ee542e76e7776342b3dabd10203d01472bbf4441be892960405160405180910390a28260020160009054906101000a900473ffffffffffffffffffffffffffffffffffffffff1673ffffffffffffffffffffffffffffffffffffffff16877f5621778ab13fbf7130d91ae5035a140b79a6cfd120059c2ea0fec2a5ce6731a68460405161122e9190611748565b60405180910390a350505050505050565b826001600082815260200190815260200160002060020160009054906101000a900473ffffffffffffffffffffffffffffffffffffffff1673ffffffffffffffffffffffffffffffffffffffff163373ffffffffffffffffffffffffffffffffffffffff16146112e4576040517f08c379a00000000000000000000000000000000000000000000000000000000081526004016112db90611fa7565b60405180910390fd5b8360018060048111156112fa576112f96114c8565b5b6001600084815260200190815260200160002060040160009054906101000a900460ff1660048111156113305761132f6114c8565b5b14611370576040517f08c379a000000000000000000000000000000000000000000000000000000000815260040161136790611df7565b60405180910390fd5b600060016000888152602001908152602001600020905060028160040160006101000a81548160ff021916908360048111156113af576113ae6114c8565b5b021790555085858260070191826113c7929190611fd2565b50867f3822c71b106c7c1dabf7f076e68c9bd98c45d0cd0d073f4dcdaf422a0fe5584787876040516113fa9291906120a2565b60405180910390a250505050505050565b600080fd5b600080fd5b6000819050919050565b61142881611415565b811461143357600080fd5b50565b6000813590506114458161141f565b92915050565b6000602082840312156114615761146061140b565b5b600061146f84828501611436565b91505092915050565b61148181611415565b82525050565b600073ffffffffffffffffffffffffffffffffffffffff82169050919050565b60006114b282611487565b9050919050565b6114c2816114a7565b82525050565b7f4e487b7100000000000000000000000000000000000000000000000000000000600052602160045260246000fd5b60058110611508576115076114c8565b5b50565b6000819050611519826114f7565b919050565b60006115298261150b565b9050919050565b6115398161151e565b82525050565b600081519050919050565b600082825260208201905092915050565b60005b8381101561157957808201518184015260208101905061155e565b60008484015250505050565b6000601f19601f8301169050919050565b60006115a18261153f565b6115ab818561154a565b93506115bb81856020860161155b565b6115c481611585565b840191505092915050565b6000610100820190506115e5600083018b611478565b6115f2602083018a6114b9565b6115ff60408301896114b9565b61160c6060830188611478565b6116196080830187611530565b81810360a083015261162b8186611596565b905081810360c083015261163f8185611596565b905081810360e08301526116538184611596565b90509998505050505050505050565b600080fd5b600080fd5b600080fd5b60008083601f84011261168757611686611662565b5b8235905067ffffffffffffffff8111156116a4576116a3611667565b5b6020830191508360018202830111156116c0576116bf61166c565b5b9250929050565b600080600080604085870312156116e1576116e061140b565b5b600085013567ffffffffffffffff8111156116ff576116fe611410565b5b61170b87828801611671565b9450945050602085013567ffffffffffffffff81111561172e5761172d611410565b5b61173a87828801611671565b925092505092959194509250565b600060208201905061175d6000830184611478565b92915050565b60008060006040848603121561177c5761177b61140b565b5b600061178a86828701611436565b935050602084013567ffffffffffffffff8111156117ab576117aa611410565b5b6117b786828701611671565b92509250509250925092565b7f4e487b7100000000000000000000000000000000000000000000000000000000600052602260045260246000fd5b6000600282049050600182168061180a57607f821691505b60208210810361181d5761181c6117c3565b5b50919050565b7f4e6f74206a6f6220636c69656e74000000000000000000000000000000000000600082015250565b6000611859600e8361154a565b915061186482611823565b602082019050919050565b600060208201905081810360008301526118888161184c565b9050919050565b7f43616e6e6f742063616e63656c20617420746869732073746167650000000000600082015250565b60006118c5601b8361154a565b91506118d08261188f565b602082019050919050565b600060208201905081810360008301526118f4816118b8565b9050919050565b600081905092915050565b50565b60006119166000836118fb565b915061192182611906565b600082019050919050565b600061193782611909565b9150819050919050565b7f526566756e64206661696c656400000000000000000000000000000000000000600082015250565b6000611977600d8361154a565b915061198282611941565b602082019050919050565b600060208201905081810360008301526119a68161196a565b9050919050565b7f4d7573742073656e64207061796d656e74000000000000000000000000000000600082015250565b60006119e360118361154a565b91506119ee826119ad565b602082019050919050565b60006020820190508181036000830152611a12816119d6565b9050919050565b7f4e487b7100000000000000000000000000000000000000000000000000000000600052604160045260246000fd5b60008190508160005260206000209050919050565b60006020601f8301049050919050565b600082821b905092915050565b600060088302611aaa7fffffffffffffffffffffffffffffffffffffffffffffffffffffffffffffffff82611a6d565b611ab48683611a6d565b95508019841693508086168417925050509392505050565b6000819050919050565b6000611af1611aec611ae784611415565b611acc565b611415565b9050919050565b6000819050919050565b611b0b83611ad6565b611b1f611b1782611af8565b848454611a7a565b825550505050565b600090565b611b34611b27565b611b3f818484611b02565b505050565b5b81811015611b6357611b58600082611b2c565b600181019050611b45565b5050565b601f821115611ba857611b7981611a48565b611b8284611a5d565b81016020851015611b91578190505b611ba5611b9d85611a5d565b830182611b44565b50505b505050565b600082821c905092915050565b6000611bcb60001984600802611bad565b1980831691505092915050565b6000611be48383611bba565b9150826002028217905092915050565b611bfd8261153f565b67ffffffffffffffff811115611c1657611c15611a19565b5b611c2082546117f2565b611c2b828285611b67565b600060209050601f831160018114611c5e5760008415611c4c578287015190505b611c568582611bd8565b865550611cbe565b601f198416611c6c86611a48565b60005b82811015611c9457848901518255600182019150602085019450602081019050611c6f565b86831015611cb15784890151611cad601f891682611bba565b8355505b6001600288020188555050505b505050505050565b7f4e487b7100000000000000000000000000000000000000000000000000000000600052601160045260246000fd5b6000611d0082611415565b91507fffffffffffffffffffffffffffffffffffffffffffffffffffffffffffffffff8203611d3257611d31611cc6565b5b600182019050919050565b82818337600083830152505050565b6000611d58838561154a565b9350611d65838584611d3d565b611d6e83611585565b840190509392505050565b6000604082019050611d8e6000830186611478565b8181036020830152611da1818486611d4c565b9050949350505050565b7f496e76616c6964206a6f62207374617475730000000000000000000000000000600082015250565b6000611de160128361154a565b9150611dec82611dab565b602082019050919050565b60006020820190508181036000830152611e1081611dd4565b9050919050565b7f4a6f6220646f6573206e6f742065786973740000000000000000000000000000600082015250565b6000611e4d60128361154a565b9150611e5882611e17565b602082019050919050565b60006020820190508181036000830152611e7c81611e40565b9050919050565b7f436c69656e742063616e6e6f7420616363657074206f776e206a6f6200000000600082015250565b6000611eb9601c8361154a565b9150611ec482611e83565b602082019050919050565b60006020820190508181036000830152611ee881611eac565b9050919050565b7f5061796f7574206661696c656400000000000000000000000000000000000000600082015250565b6000611f25600d8361154a565b9150611f3082611eef565b602082019050919050565b60006020820190508181036000830152611f5481611f18565b9050919050565b7f4e6f74206a6f6220667265656c616e6365720000000000000000000000000000600082015250565b6000611f9160128361154a565b9150611f9c82611f5b565b602082019050919050565b60006020820190508181036000830152611fc081611f84565b9050919050565b600082905092915050565b611fdc8383611fc7565b67ffffffffffffffff811115611ff557611ff4611a19565b5b611fff82546117f2565b61200a828285611b67565b6000601f8311600181146120395760008415612027578287013590505b6120318582611bd8565b865550612099565b601f19841661204786611a48565b60005b8281101561206f5784890135825560018201915060208501945060208101905061204a565b8683101561208c5784890135612088601f891682611bba565b8355505b6001600288020188555050505b50505050505050565b600060208201905081810360008301526120bd818486611d4c565b9050939250505056fea26469706673582212209d6cbb3901403a149014674fb857dd8e89b8b4b1d6474eea200e96372e70cdc664736f6c63430008130033",
  "immutableReferences": {},
  "source": "pragma solidity ^0.8.19;\r\n\r\ncontract FreelancePlatform {\r\n    enum Status {\r\n        Open,        \r\n        InProgress,  \r\n        Submitted,   \r\n        Completed,   \r\n        Cancelled    \r\n    }\r\n\r\n    struct Job {\r\n        uint256 id;\r\n        address client;\r\n        address freelancer;\r\n        uint256 amount;      \r\n        Status status;\r\n        string title;\r\n        string description;\r\n        string workUri;       \r\n    }\r\n\r\n    uint256 public nextJobId;\r\n    mapping(uint256 => Job) public jobs;\r\n\r\n    event JobCreated(\r\n        uint256 indexed id,\r\n        address indexed client,\r\n        uint256 amount,\r\n        string title\r\n    );\r\n    event JobAccepted(uint256 indexed id, address indexed freelancer);\r\n    event WorkSubmitted(uint256 indexed id, string workUri);\r\n    event JobCompleted(uint256 indexed id);\r\n    event JobCancelled(uint256 indexed id);\r\n    event PayoutReleased(uint256 indexed id, address indexed freelancer, uint256 amount);\r\n\r\n    modifier onlyClient(uint256 _jobId) {\r\n        require(msg.sender == jobs[_jobId].client, \"Not job client\");\r\n        _;\r\n    }\r\n\r\n    modifier onlyFreelancer(uint256 _jobId) {\r\n        require(msg.sender == jobs[_jobId].freelancer, \"Not job freelancer\");\r\n        _;\r\n    }\r\n\r\n    modifier inStatus(uint256 _jobId, Status _status) {\r\n        require(jobs[_jobId].status == _status, \"Invalid job status\");\r\n        _;\r\n    }\r\n\r\n    function createJob(\r\n        string calldata _title,\r\n        string calldata _description\r\n    ) external payable {\r\n        require(msg.value > 0, \"Must send payment\");\r\n\r\n        uint256 jobId = nextJobId;\r\n        jobs[jobId] = Job({\r\n            id: jobId,\r\n            client: msg.sender,\r\n            freelancer: address(0),\r\n            amount: msg.value,\r\n            status: Status.Open,\r\n            title: _title,\r\n            description: _description,\r\n            workUri: \"\"\r\n        });\r\n        nextJobId++;\r\n\r\n        emit JobCreated(jobId, msg.sender, msg.value, _title);\r\n    }\r\n\r\n    function acceptJob(uint256 _jobId)\r\n        external\r\n        inStatus(_jobId, Status.Open)\r\n    {\r\n        Job storage job = jobs[_jobId];\r\n        require(job.client != address(0), \"Job does not exist\");\r\n        require(msg.sender != job.client, \"Client cannot accept own job\");\r\n\r\n        job.freelancer = msg.sender;\r\n        job.status = Status.InProgress;\r\n\r\n        emit JobAccepted(_jobId, msg.sender);\r\n    }\r\n\r\n    function submitWork(uint256 _jobId, string calldata _workUri)\r\n        external\r\n        onlyFreelancer(_jobId)\r\n        inStatus(_jobId, Status.InProgress)\r\n    {\r\n        Job storage job = jobs[_jobId];\r\n        job.status = Status.Submitted;\r\n        job.workUri = _workUri;\r\n\r\n        emit WorkSubmitted(_jobId, _workUri);\r\n    }\r\n\r\n    /// @notice client accepts submitted work and pays freelancer\r\n    function markCompleted(uint256 _jobId)\r\n        external\r\n        onlyClient(_jobId)\r\n        inStatus(_jobId, Status.Submitted)\r\n    {\r\n        Job storage job = jobs[_jobId];\r\n        job.status = Status.Completed;\r\n\r\n        uint256 amount = job.amount;\r\n        job.amount = 0;\r\n\r\n        (bool sent, ) = job.freelancer.call{value: amount}(\"\");\r\n        require(sent, \"Payout failed\");\r\n\r\n        emit JobCompleted(_jobId);\r\n        emit PayoutReleased(_jobId, job.freelancer, amount);\r\n    }\r\n\r\n    function cancelJob(uint256 _jobId)\r\n        external\r\n        onlyClient(_jobId)\r\n    {\r\n        Job storage job = jobs[_jobId];\r\n\r\n        require(\r\n            job.status == Status.Open || job.status == Status.Submitted,\r\n            \"Cannot cancel at this stage\"\r\n        );\r\n\r\n        job.status = Status.Cancelled;\r\n\r\n        uint256 amount = job.amount;\r\n        job.amount = 0;\r\n\r\n        (bool sent, ) = job.client.call{value: amount}(\"\");\r\n        require(sent, \"Refund failed\");\r\n\r\n        emit JobCancelled(_jobId);\r\n    }\r\n\r\n \r\n\r\n    function getJob(uint256 _jobId)\r\n        external\r\n        view\r\n        returns (\r\n            uint256 id,\r\n            address client,\r\n            address freelancer,\r\n            uint256 amount,\r\n            Status status,\r\n            string memory title,\r\n            string memory description,\r\n            string memory workUri\r\n        )\r\n    {\r\n        Job storage j = jobs[_jobId];\r\n        require(j.client != address(0), \"Job does not exist\");\r\n        return (\r\n            j.id,\r\n            j.client,\r\n            j.freelancer,\r\n            j.amount,\r\n            j.status,\r\n            j.title,\r\n            j.description,\r\n            j.workUri\r\n        );\r\n    }\r\n}\r\n",
  "sourcePath": "C:\\Users\\nikab\\OneDrive\\Stalinis kompiuteris\\VU\\2 kursas\\Block chains\\freelance-blockchain\\contracts\\FreelancePlatform.sol",
  "compiler": {
    "name": "solc",
    "version": "0.8.19+commit.7dd6d404.Emscripten.clang"
  },
  "schemaVersion": "3.4.16",
  "updatedAt": "2025-12-10T15:15:58.855Z",
  "networkType": "ethereum",
  "devdoc": {
    "kind": "dev",
    "methods": {},
    "version": 1
  },
  "userdoc": {
    "kind": "user",
    "methods": {
      "markCompleted(uint256)": {
        "notice": "client accepts submitted work and pays freelancer"
      }
    },
    "version": 1
  }
}