{
  "contractName": "FreelancePlatform",
  "abi": [
    {
      "anonymous": false,
      "inputs": [
        {
          "indexed": true,
          "internalType": "uint256",
          "name": "id",
          "type": "uint256"
        },
        {
          "indexed": true,
          "internalType": "address",
          "name": "freelancer",
          "type": "address"
        }
      ],
      "name": "JobAccepted",
      "type": "event"
    },
    {
      "anonymous": false,
      "inputs": [
        {
          "indexed": true,
          "internalType": "uint256",
          "name": "id",
          "type": "uint256"
        }
      ],
      "name": "JobCancelled",
      "type": "event"
    },
    {
      "anonymous": false,
      "inputs": [
        {
          "indexed": true,
          "internalType": "uint256",
          "name": "id",
          "type": "uint256"
        }
      ],
      "name": "JobCompleted",
      "type": "event"
    },
    {
      "anonymous": false,
      "inputs": [
        {
          "indexed": true,
          "internalType": "uint256",
          "name": "id",
          "type": "uint256"
        },
        {
          "indexed": true,
          "internalType": "address",
          "name": "client",
          "type": "address"
        },
        {
          "indexed": false,
          "internalType": "uint256",
          "name": "amount",
          "type": "uint256"
        },
        {
          "indexed": false,
          "internalType": "string",
          "name": "title",
          "type": "string"
        }
      ],
      "name": "JobCreated",
      "type": "event"
    },
    {
      "anonymous": false,
      "inputs": [
        {
          "indexed": true,
          "internalType": "uint256",
          "name": "id",
          "type": "uint256"
        }
      ],
      "name": "JobDisputed",
      "type": "event"
    },
    {
      "anonymous": false,
      "inputs": [
        {
          "indexed": true,
          "internalType": "uint256",
          "name": "id",
          "type": "uint256"
        },
        {
          "indexed": true,
          "internalType": "address",
          "name": "freelancer",
          "type": "address"
        },
        {
          "indexed": false,
          "internalType": "uint256",
          "name": "amount",
          "type": "uint256"
        }
      ],
      "name": "PayoutReleased",
      "type": "event"
    },
    {
      "anonymous": false,
      "inputs": [
        {
          "indexed": true,
          "internalType": "uint256",
          "name": "id",
          "type": "uint256"
        },
        {
          "indexed": false,
          "internalType": "string",
          "name": "workUri",
          "type": "string"
        }
      ],
      "name": "WorkSubmitted",
      "type": "event"
    },
    {
      "inputs": [
        {
          "internalType": "uint256",
          "name": "",
          "type": "uint256"
        }
      ],
      "name": "jobs",
      "outputs": [
        {
          "internalType": "uint256",
          "name": "id",
          "type": "uint256"
        },
        {
          "internalType": "address",
          "name": "client",
          "type": "address"
        },
        {
          "internalType": "address",
          "name": "freelancer",
          "type": "address"
        },
        {
          "internalType": "uint256",
          "name": "amount",
          "type": "uint256"
        },
        {
          "internalType": "enum FreelancePlatform.Status",
          "name": "status",
          "type": "uint8"
        },
        {
          "internalType": "string",
          "name": "title",
          "type": "string"
        },
        {
          "internalType": "string",
          "name": "description",
          "type": "string"
        },
        {
          "internalType": "string",
          "name": "workUri",
          "type": "string"
        },
        {
          "internalType": "uint256",
          "name": "deadline",
          "type": "uint256"
        }
      ],
      "stateMutability": "view",
      "type": "function",
      "constant": true
    },
    {
      "inputs": [],
      "name": "nextJobId",
      "outputs": [
        {
          "internalType": "uint256",
          "name": "",
          "type": "uint256"
        }
      ],
      "stateMutability": "view",
      "type": "function",
      "constant": true
    },
    {
      "inputs": [
        {
          "internalType": "string",
          "name": "_title",
          "type": "string"
        },
        {
          "internalType": "string",
          "name": "_description",
          "type": "string"
        },
        {
          "internalType": "uint256",
          "name": "_deadline",
          "type": "uint256"
        }
      ],
      "name": "createJob",
      "outputs": [],
      "stateMutability": "payable",
      "type": "function",
      "payable": true
    },
    {
      "inputs": [
        {
          "internalType": "uint256",
          "name": "_jobId",
          "type": "uint256"
        }
      ],
      "name": "acceptJob",
      "outputs": [],
      "stateMutability": "nonpayable",
      "type": "function"
    },
    {
      "inputs": [
        {
          "internalType": "uint256",
          "name": "_jobId",
          "type": "uint256"
        },
        {
          "internalType": "string",
          "name": "_workUri",
          "type": "string"
        }
      ],
      "name": "submitWork",
      "outputs": [],
      "stateMutability": "nonpayable",
      "type": "function"
    },
    {
      "inputs": [
        {
          "internalType": "uint256",
          "name": "_jobId",
          "type": "uint256"
        }
      ],
      "name": "markCompleted",
      "outputs": [],
      "stateMutability": "nonpayable",
      "type": "function"
    },
    {
      "inputs": [
        {
          "internalType": "uint256",
          "name": "_jobId",
          "type": "uint256"
        }
      ],
      "name": "cancelJob",
      "outputs": [],
      "stateMutability": "nonpayable",
      "type": "function"
    },
    {
      "inputs": [
        {
          "internalType": "uint256",
          "name": "_jobId",
          "type": "uint256"
        }
      ],
      "name": "disputeJob",
      "outputs": [],
      "stateMutability": "nonpayable",
      "type": "function"
    },
    {
      "inputs": [
        {
          "internalType": "uint256",
          "name": "_jobId",
          "type": "uint256"
        }
      ],
      "name": "getJob",
      "outputs": [
        {
          "internalType": "uint256",
          "name": "id",
          "type": "uint256"
        },
        {
          "internalType": "address",
          "name": "client",
          "type": "address"
        },
        {
          "internalType": "address",
          "name": "freelancer",
          "type": "address"
        },
        {
          "internalType": "uint256",
          "name": "amount",
          "type": "uint256"
        },
        {
          "internalType": "enum FreelancePlatform.Status",
          "name": "status",
          "type": "uint8"
        },
        {
          "internalType": "string",
          "name": "title",
          "type": "string"
        },
        {
          "internalType": "string",
          "name": "description",
          "type": "string"
        },
        {
          "internalType": "string",
          "name": "workUri",
          "type": "string"
        },
        {
          "internalType": "uint256",
          "name": "deadline",
          "type": "uint256"
        }
      ],
      "stateMutability": "view",
      "type": "function",
      "constant": true
    }
  ],
  "bytecode": "0x608060405234801561001057600080fd5b50612320806100206000396000f3fe6080604052600436106100865760003560e01c8063b0c2aa5e11610059578063b0c2aa5e1461013e578063bf22c45714610169578063cac5c512146101ae578063d93d9beb146101d7578063da8accf91461020057610086565b8063180aedf31461008b5780631dffa3dc146100d057806363b2f3c9146100f957806373a06f4214610122575b600080fd5b34801561009757600080fd5b506100b260048036038101906100ad919061164c565b610229565b6040516100c7999897969594939291906117d0565b60405180910390f35b3480156100dc57600080fd5b506100f760048036038101906100f2919061164c565b61045c565b005b34801561010557600080fd5b50610120600480360381019061011b919061164c565b610714565b005b61013c600480360381019061013791906118d7565b610996565b005b34801561014a57600080fd5b50610153610c9d565b604051610160919061196c565b60405180910390f35b34801561017557600080fd5b50610190600480360381019061018b919061164c565b610ca3565b6040516101a5999897969594939291906117d0565b60405180910390f35b3480156101ba57600080fd5b506101d560048036038101906101d0919061164c565b610f96565b005b3480156101e357600080fd5b506101fe60048036038101906101f9919061164c565b611297565b005b34801561020c57600080fd5b5061022760048036038101906102229190611987565b611440565b005b60016020528060005260406000206000915090508060000154908060010160009054906101000a900473ffffffffffffffffffffffffffffffffffffffff16908060020160009054906101000a900473ffffffffffffffffffffffffffffffffffffffff16908060030154908060040160009054906101000a900460ff16908060050180546102b790611a16565b80601f01602080910402602001604051908101604052809291908181526020018280546102e390611a16565b80156103305780601f1061030557610100808354040283529160200191610330565b820191906000526020600020905b81548152906001019060200180831161031357829003601f168201915b50505050509080600601805461034590611a16565b80601f016020809104026020016040519081016040528092919081815260200182805461037190611a16565b80156103be5780601f10610393576101008083540402835291602001916103be565b820191906000526020600020905b8154815290600101906020018083116103a157829003601f168201915b5050505050908060070180546103d390611a16565b80601f01602080910402602001604051908101604052809291908181526020018280546103ff90611a16565b801561044c5780601f106104215761010080835404028352916020019161044c565b820191906000526020600020905b81548152906001019060200180831161042f57829003601f168201915b5050505050908060080154905089565b806001600082815260200190815260200160002060010160009054906101000a900473ffffffffffffffffffffffffffffffffffffffff1673ffffffffffffffffffffffffffffffffffffffff163373ffffffffffffffffffffffffffffffffffffffff1614610501576040517f08c379a00000000000000000000000000000000000000000000000000000000081526004016104f890611a93565b60405180910390fd5b60006001600084815260200190815260200160002090506000600581111561052c5761052b6116c9565b5b8160040160009054906101000a900460ff1660058111156105505761054f6116c9565b5b148061059157506002600581111561056b5761056a6116c9565b5b8160040160009054906101000a900460ff16600581111561058f5761058e6116c9565b5b145b6105d0576040517f08c379a00000000000000000000000000000000000000000000000000000000081526004016105c790611aff565b60405180910390fd5b60048160040160006101000a81548160ff021916908360058111156105f8576105f76116c9565b5b02179055506000816003015490506000826003018190555060008260010160009054906101000a900473ffffffffffffffffffffffffffffffffffffffff1673ffffffffffffffffffffffffffffffffffffffff168260405161065a90611b50565b60006040518083038185875af1925050503d8060008114610697576040519150601f19603f3d011682016040523d82523d6000602084013e61069c565b606091505b50509050806106e0576040517f08c379a00000000000000000000000000000000000000000000000000000000081526004016106d790611bb1565b60405180910390fd5b847f58243f872c550ad02802199ade99eb4250f6bb19e9abbf2d3de7b969c0eb5e4f60405160405180910390a25050505050565b80600080600581111561072a576107296116c9565b5b6001600084815260200190815260200160002060040160009054906101000a900460ff1660058111156107605761075f6116c9565b5b146107a0576040517f08c379a000000000000000000000000000000000000000000000000000000000815260040161079790611c1d565b60405180910390fd5b6000600160008581526020019081526020016000209050600073ffffffffffffffffffffffffffffffffffffffff168160010160009054906101000a900473ffffffffffffffffffffffffffffffffffffffff1673ffffffffffffffffffffffffffffffffffffffff160361084a576040517f08c379a000000000000000000000000000000000000000000000000000000000815260040161084190611c89565b60405180910390fd5b8060010160009054906101000a900473ffffffffffffffffffffffffffffffffffffffff1673ffffffffffffffffffffffffffffffffffffffff163373ffffffffffffffffffffffffffffffffffffffff16036108dc576040517f08c379a00000000000000000000000000000000000000000000000000000000081526004016108d390611cf5565b60405180910390fd5b338160020160006101000a81548173ffffffffffffffffffffffffffffffffffffffff021916908373ffffffffffffffffffffffffffffffffffffffff16021790555060018160040160006101000a81548160ff02191690836005811115610947576109466116c9565b5b02179055503373ffffffffffffffffffffffffffffffffffffffff16847f4426e4a90a9570c8f678a263b11785eaaade8b79d76d18c43d4d8e00062e4f8360405160405180910390a350505050565b600034116109d9576040517f08c379a00000000000000000000000000000000000000000000000000000000081526004016109d090611d61565b60405180910390fd5b6000805490506040518061012001604052808281526020013373ffffffffffffffffffffffffffffffffffffffff168152602001600073ffffffffffffffffffffffffffffffffffffffff16815260200134815260200160006005811115610a4457610a436116c9565b5b815260200187878080601f016020809104026020016040519081016040528093929190818152602001838380828437600081840152601f19601f82011690508083019250505050505050815260200185858080601f016020809104026020016040519081016040528093929190818152602001838380828437600081840152601f19601f82011690508083019250505050505050815260200160405180602001604052806000815250815260200183815250600160008381526020019081526020016000206000820151816000015560208201518160010160006101000a81548173ffffffffffffffffffffffffffffffffffffffff021916908373ffffffffffffffffffffffffffffffffffffffff16021790555060408201518160020160006101000a81548173ffffffffffffffffffffffffffffffffffffffff021916908373ffffffffffffffffffffffffffffffffffffffff1602179055506060820151816003015560808201518160040160006101000a81548160ff02191690836005811115610bd657610bd56116c9565b5b021790555060a0820151816005019081610bf09190611f5c565b5060c0820151816006019081610c069190611f5c565b5060e0820151816007019081610c1c9190611f5c565b506101008201518160080155905050600080815480929190610c3d9061205d565b91905055503373ffffffffffffffffffffffffffffffffffffffff16817f6f3a5227c058380f6d30b3c63e04e4b049f2df6d1780f11e4ff1b3e9728a3652348989604051610c8d939291906120e1565b60405180910390a3505050505050565b60005481565b60008060008060006060806060600080600160008c81526020019081526020016000209050600073ffffffffffffffffffffffffffffffffffffffff168160010160009054906101000a900473ffffffffffffffffffffffffffffffffffffffff1673ffffffffffffffffffffffffffffffffffffffff1603610d5b576040517f08c379a0000000000000000000000000000000000000000000000000000000008152600401610d5290611c89565b60405180910390fd5b80600001548160010160009054906101000a900473ffffffffffffffffffffffffffffffffffffffff168260020160009054906101000a900473ffffffffffffffffffffffffffffffffffffffff1683600301548460040160009054906101000a900460ff168560050186600601876007018860080154838054610dde90611a16565b80601f0160208091040260200160405190810160405280929190818152602001828054610e0a90611a16565b8015610e575780601f10610e2c57610100808354040283529160200191610e57565b820191906000526020600020905b815481529060010190602001808311610e3a57829003601f168201915b50505050509350828054610e6a90611a16565b80601f0160208091040260200160405190810160405280929190818152602001828054610e9690611a16565b8015610ee35780601f10610eb857610100808354040283529160200191610ee3565b820191906000526020600020905b815481529060010190602001808311610ec657829003601f168201915b50505050509250818054610ef690611a16565b80601f0160208091040260200160405190810160405280929190818152602001828054610f2290611a16565b8015610f6f5780601f10610f4457610100808354040283529160200191610f6f565b820191906000526020600020905b815481529060010190602001808311610f5257829003601f168201915b50505050509150995099509950995099509950995099509950509193959799909294969850565b806001600082815260200190815260200160002060010160009054906101000a900473ffffffffffffffffffffffffffffffffffffffff1673ffffffffffffffffffffffffffffffffffffffff163373ffffffffffffffffffffffffffffffffffffffff161461103b576040517f08c379a000000000000000000000000000000000000000000000000000000000815260040161103290611a93565b60405180910390fd5b816002806005811115611051576110506116c9565b5b6001600084815260200190815260200160002060040160009054906101000a900460ff166005811115611087576110866116c9565b5b146110c7576040517f08c379a00000000000000000000000000000000000000000000000000000000081526004016110be90611c1d565b60405180910390fd5b600060016000868152602001908152602001600020905060038160040160006101000a81548160ff02191690836005811115611106576111056116c9565b5b02179055506000816003015490506000826003018190555060008260020160009054906101000a900473ffffffffffffffffffffffffffffffffffffffff1673ffffffffffffffffffffffffffffffffffffffff168260405161116890611b50565b60006040518083038185875af1925050503d80600081146111a5576040519150601f19603f3d011682016040523d82523d6000602084013e6111aa565b606091505b50509050806111ee576040517f08c379a00000000000000000000000000000000000000000000000000000000081526004016111e59061215f565b60405180910390fd5b867f02244c8529cb95e213ee542e76e7776342b3dabd10203d01472bbf4441be892960405160405180910390a28260020160009054906101000a900473ffffffffffffffffffffffffffffffffffffffff1673ffffffffffffffffffffffffffffffffffffffff16877f5621778ab13fbf7130d91ae5035a140b79a6cfd120059c2ea0fec2a5ce6731a684604051611286919061196c565b60405180910390a350505050505050565b806001600082815260200190815260200160002060010160009054906101000a900473ffffffffffffffffffffffffffffffffffffffff1673ffffffffffffffffffffffffffffffffffffffff163373ffffffffffffffffffffffffffffffffffffffff161461133c576040517f08c379a000000000000000000000000000000000000000000000000000000000815260040161133390611a93565b60405180910390fd5b816002806005811115611352576113516116c9565b5b6001600084815260200190815260200160002060040160009054906101000a900460ff166005811115611388576113876116c9565b5b146113c8576040517f08c379a00000000000000000000000000000000000000000000000000000000081526004016113bf90611c1d565b60405180910390fd5b600060016000868152602001908152602001600020905060058160040160006101000a81548160ff02191690836005811115611407576114066116c9565b5b0217905550847fb1dee78cef8c6887046d91c59e17f84fbc012c9f7efa49a10cce97e13cc94bf460405160405180910390a25050505050565b826001600082815260200190815260200160002060020160009054906101000a900473ffffffffffffffffffffffffffffffffffffffff1673ffffffffffffffffffffffffffffffffffffffff163373ffffffffffffffffffffffffffffffffffffffff16146114e5576040517f08c379a00000000000000000000000000000000000000000000000000000000081526004016114dc906121cb565b60405180910390fd5b8360018060058111156114fb576114fa6116c9565b5b6001600084815260200190815260200160002060040160009054906101000a900460ff166005811115611531576115306116c9565b5b14611571576040517f08c379a000000000000000000000000000000000000000000000000000000000815260040161156890611c1d565b60405180910390fd5b600060016000888152602001908152602001600020905060028160040160006101000a81548160ff021916908360058111156115b0576115af6116c9565b5b021790555085858260070191826115c89291906121f6565b50867f3822c71b106c7c1dabf7f076e68c9bd98c45d0cd0d073f4dcdaf422a0fe5584787876040516115fb9291906122c6565b60405180910390a250505050505050565b600080fd5b600080fd5b6000819050919050565b61162981611616565b811461163457600080fd5b50565b60008135905061164681611620565b92915050565b6000602082840312156116625761166161160c565b5b600061167084828501611637565b91505092915050565b61168281611616565b82525050565b600073ffffffffffffffffffffffffffffffffffffffff82169050919050565b60006116b382611688565b9050919050565b6116c3816116a8565b82525050565b7f4e487b7100000000000000000000000000000000000000000000000000000000600052602160045260246000fd5b60068110611709576117086116c9565b5b50565b600081905061171a826116f8565b919050565b600061172a8261170c565b9050919050565b61173a8161171f565b82525050565b600081519050919050565b600082825260208201905092915050565b60005b8381101561177a57808201518184015260208101905061175f565b60008484015250505050565b6000601f19601f8301169050919050565b60006117a282611740565b6117ac818561174b565b93506117bc81856020860161175c565b6117c581611786565b840191505092915050565b6000610120820190506117e6600083018c611679565b6117f3602083018b6116ba565b611800604083018a6116ba565b61180d6060830189611679565b61181a6080830188611731565b81810360a083015261182c8187611797565b905081810360c08301526118408186611797565b905081810360e08301526118548185611797565b9050611864610100830184611679565b9a9950505050505050505050565b600080fd5b600080fd5b600080fd5b60008083601f84011261189757611896611872565b5b8235905067ffffffffffffffff8111156118b4576118b3611877565b5b6020830191508360018202830111156118d0576118cf61187c565b5b9250929050565b6000806000806000606086880312156118f3576118f261160c565b5b600086013567ffffffffffffffff81111561191157611910611611565b5b61191d88828901611881565b9550955050602086013567ffffffffffffffff8111156119405761193f611611565b5b61194c88828901611881565b9350935050604061195f88828901611637565b9150509295509295909350565b60006020820190506119816000830184611679565b92915050565b6000806000604084860312156119a05761199f61160c565b5b60006119ae86828701611637565b935050602084013567ffffffffffffffff8111156119cf576119ce611611565b5b6119db86828701611881565b92509250509250925092565b7f4e487b7100000000000000000000000000000000000000000000000000000000600052602260045260246000fd5b60006002820490506001821680611a2e57607f821691505b602082108103611a4157611a406119e7565b5b50919050565b7f4e6f74206a6f6220636c69656e74000000000000000000000000000000000000600082015250565b6000611a7d600e8361174b565b9150611a8882611a47565b602082019050919050565b60006020820190508181036000830152611aac81611a70565b9050919050565b7f43616e6e6f742063616e63656c20617420746869732073746167650000000000600082015250565b6000611ae9601b8361174b565b9150611af482611ab3565b602082019050919050565b60006020820190508181036000830152611b1881611adc565b9050919050565b600081905092915050565b50565b6000611b3a600083611b1f565b9150611b4582611b2a565b600082019050919050565b6000611b5b82611b2d565b9150819050919050565b7f526566756e64206661696c656400000000000000000000000000000000000000600082015250565b6000611b9b600d8361174b565b9150611ba682611b65565b602082019050919050565b60006020820190508181036000830152611bca81611b8e565b9050919050565b7f496e76616c6964206a6f62207374617475730000000000000000000000000000600082015250565b6000611c0760128361174b565b9150611c1282611bd1565b602082019050919050565b60006020820190508181036000830152611c3681611bfa565b9050919050565b7f4a6f6220646f6573206e6f742065786973740000000000000000000000000000600082015250565b6000611c7360128361174b565b9150611c7e82611c3d565b602082019050919050565b60006020820190508181036000830152611ca281611c66565b9050919050565b7f436c69656e742063616e6e6f7420616363657074206f776e206a6f6200000000600082015250565b6000611cdf601c8361174b565b9150611cea82611ca9565b602082019050919050565b60006020820190508181036000830152611d0e81611cd2565b9050919050565b7f4d7573742073656e64207061796d656e74000000000000000000000000000000600082015250565b6000611d4b60118361174b565b9150611d5682611d15565b602082019050919050565b60006020820190508181036000830152611d7a81611d3e565b9050919050565b7f4e487b7100000000000000000000000000000000000000000000000000000000600052604160045260246000fd5b60008190508160005260206000209050919050565b60006020601f8301049050919050565b600082821b905092915050565b600060088302611e127fffffffffffffffffffffffffffffffffffffffffffffffffffffffffffffffff82611dd5565b611e1c8683611dd5565b95508019841693508086168417925050509392505050565b6000819050919050565b6000611e59611e54611e4f84611616565b611e34565b611616565b9050919050565b6000819050919050565b611e7383611e3e565b611e87611e7f82611e60565b848454611de2565b825550505050565b600090565b611e9c611e8f565b611ea7818484611e6a565b505050565b5b81811015611ecb57611ec0600082611e94565b600181019050611ead565b5050565b601f821115611f1057611ee181611db0565b611eea84611dc5565b81016020851015611ef9578190505b611f0d611f0585611dc5565b830182611eac565b50505b505050565b600082821c905092915050565b6000611f3360001984600802611f15565b1980831691505092915050565b6000611f4c8383611f22565b9150826002028217905092915050565b611f6582611740565b67ffffffffffffffff811115611f7e57611f7d611d81565b5b611f888254611a16565b611f93828285611ecf565b600060209050601f831160018114611fc65760008415611fb4578287015190505b611fbe8582611f40565b865550612026565b601f198416611fd486611db0565b60005b82811015611ffc57848901518255600182019150602085019450602081019050611fd7565b868310156120195784890151612015601f891682611f22565b8355505b6001600288020188555050505b505050505050565b7f4e487b7100000000000000000000000000000000000000000000000000000000600052601160045260246000fd5b600061206882611616565b91507fffffffffffffffffffffffffffffffffffffffffffffffffffffffffffffffff820361209a5761209961202e565b5b600182019050919050565b82818337600083830152505050565b60006120c0838561174b565b93506120cd8385846120a5565b6120d683611786565b840190509392505050565b60006040820190506120f66000830186611679565b81810360208301526121098184866120b4565b9050949350505050565b7f5061796f7574206661696c656400000000000000000000000000000000000000600082015250565b6000612149600d8361174b565b915061215482612113565b602082019050919050565b600060208201905081810360008301526121788161213c565b9050919050565b7f4e6f74206a6f6220667265656c616e6365720000000000000000000000000000600082015250565b60006121b560128361174b565b91506121c08261217f565b602082019050919050565b600060208201905081810360008301526121e4816121a8565b9050919050565b600082905092915050565b61220083836121eb565b67ffffffffffffffff81111561221957612218611d81565b5b6122238254611a16565b61222e828285611ecf565b6000601f83116001811461225d576000841561224b578287013590505b6122558582611f40565b8655506122bd565b601f19841661226b86611db0565b60005b828110156122935784890135825560018201915060208501945060208101905061226e565b868310156122b057848901356122ac601f891682611f22565b8355505b6001600288020188555050505b50505050505050565b600060208201905081810360008301526122e18184866120b4565b9050939250505056fea2646970667358221220a1f3e225893adbac141301474315e6ab690a040c5f9c6b658edfa7cf6635ae0d64736f6c63430008130033",
  "immutableReferences": {},
  "source": "pragma solidity ^0.8.19;\n\ncontract FreelancePlatform {\n    enum Status {\n        Open,        \n        InProgress,  \n        Submitted,   \n        Completed,   \n        Cancelled,\n        Disputed   \n    }\n\n    struct Job {\n        uint256 id;\n        address client;\n        address freelancer;\n        uint256 amount;      \n        Status status;\n        string title;\n        string description;\n        string workUri;   \n        uint256 deadline;     \n    }\n\n    uint256 public nextJobId;\n    mapping(uint256 => Job) public jobs;\n\n    event JobCreated(\n        uint256 indexed id,\n        address indexed client,\n        uint256 amount,\n        string title\n    );\n    event JobAccepted(uint256 indexed id, address indexed freelancer);\n    event WorkSubmitted(uint256 indexed id, string workUri);\n    event JobCompleted(uint256 indexed id);\n    event JobCancelled(uint256 indexed id);\n    event PayoutReleased(uint256 indexed id, address indexed freelancer, uint256 amount);\n    event JobDisputed(uint256 indexed id);\n\n    modifier onlyClient(uint256 _jobId) {\n        require(msg.sender == jobs[_jobId].client, \"Not job client\");\n        _;\n    }\n\n    modifier onlyFreelancer(uint256 _jobId) {\n        require(msg.sender == jobs[_jobId].freelancer, \"Not job freelancer\");\n        _;\n    }\n\n    modifier inStatus(uint256 _jobId, Status _status) {\n        require(jobs[_jobId].status == _status, \"Invalid job status\");\n        _;\n    }\n\n    function createJob(\n        string calldata _title,\n        string calldata _description,\n        uint256 _deadline\n    ) external payable {\n        require(msg.value > 0, \"Must send payment\");\n\n        uint256 jobId = nextJobId;\n        jobs[jobId] = Job({\n            id: jobId,\n            client: msg.sender,\n            freelancer: address(0),\n            amount: msg.value,\n            status: Status.Open,\n            title: _title,\n            description: _description,\n            workUri: \"\",\n            deadline: _deadline \n        });\n        nextJobId++;\n\n        emit JobCreated(jobId, msg.sender, msg.value, _title);\n    }\n\n    function acceptJob(uint256 _jobId)\n        external\n        inStatus(_jobId, Status.Open)\n    {\n        Job storage job = jobs[_jobId];\n        require(job.client != address(0), \"Job does not exist\");\n        require(msg.sender != job.client, \"Client cannot accept own job\");\n\n        job.freelancer = msg.sender;\n        job.status = Status.InProgress;\n\n        emit JobAccepted(_jobId, msg.sender);\n    }\n\n    function submitWork(uint256 _jobId, string calldata _workUri)\n        external\n        onlyFreelancer(_jobId)\n        inStatus(_jobId, Status.InProgress)\n    {\n        Job storage job = jobs[_jobId];\n        job.status = Status.Submitted;\n        job.workUri = _workUri;\n\n        emit WorkSubmitted(_jobId, _workUri);\n    }\n\n\n    function markCompleted(uint256 _jobId)\n        external\n        onlyClient(_jobId)\n        inStatus(_jobId, Status.Submitted)\n    {\n        Job storage job = jobs[_jobId];\n        job.status = Status.Completed;\n\n        uint256 amount = job.amount;\n        job.amount = 0;\n\n        (bool sent, ) = job.freelancer.call{value: amount}(\"\");\n        require(sent, \"Payout failed\");\n\n        emit JobCompleted(_jobId);\n        emit PayoutReleased(_jobId, job.freelancer, amount);\n    }\n\n    function cancelJob(uint256 _jobId)\n        external\n        onlyClient(_jobId)\n    {\n        Job storage job = jobs[_jobId];\n\n        require(\n            job.status == Status.Open || job.status == Status.Submitted,\n            \"Cannot cancel at this stage\"\n        );\n\n        job.status = Status.Cancelled;\n\n        uint256 amount = job.amount;\n        job.amount = 0;\n\n        (bool sent, ) = job.client.call{value: amount}(\"\");\n        require(sent, \"Refund failed\");\n\n        emit JobCancelled(_jobId);\n    }\n    function disputeJob(uint256 _jobId)\n        external\n        onlyClient(_jobId)\n        inStatus(_jobId, Status.Submitted)\n    {\n        Job storage job = jobs[_jobId];\n        job.status = Status.Disputed;\n\n        emit JobDisputed(_jobId);\n    }\n\n \n\n    function getJob(uint256 _jobId)\n        external\n        view\n        returns (\n            uint256 id,\n            address client,\n            address freelancer,\n            uint256 amount,\n            Status status,\n            string memory title,\n            string memory description,\n            string memory workUri,\n            uint256 deadline\n        )\n    {\n        Job storage j = jobs[_jobId];\n        require(j.client != address(0), \"Job does not exist\");\n        return (\n            j.id,\n            j.client,\n            j.freelancer,\n            j.amount,\n            j.status,\n            j.title,\n            j.description,\n            j.workUri,\n            j.deadline\n        );\n    }\n}\n",
  "sourcePath": "/Users/anastasijafedorenko/Desktop/UNI/freelance-blockchain-1/contracts/FreelancePlatform.sol",
  "compiler": {
    "name": "solc",
    "version": "0.8.19+commit.7dd6d404.Emscripten.clang"
  },
  "schemaVersion": "3.4.16",
  "updatedAt": "2025-12-11T13:09:06.122Z",
  "networkType": "ethereum",
  "devdoc": {
    "kind": "dev",
    "methods": {},
    "version": 1
  },
  "userdoc": {
    "kind": "user",
    "methods": {},
    "version": 1
  }
}