{
  "contractName": "FreelancePlatform",
  "abi": [
    {
      "anonymous": false,
      "inputs": [
        {
          "indexed": true,
          "internalType": "uint256",
          "name": "id",
          "type": "uint256"
        },
        {
          "indexed": true,
          "internalType": "address",
          "name": "freelancer",
          "type": "address"
        }
      ],
      "name": "JobAccepted",
      "type": "event"
    },
    {
      "anonymous": false,
      "inputs": [
        {
          "indexed": true,
          "internalType": "uint256",
          "name": "id",
          "type": "uint256"
        }
      ],
      "name": "JobCancelled",
      "type": "event"
    },
    {
      "anonymous": false,
      "inputs": [
        {
          "indexed": true,
          "internalType": "uint256",
          "name": "id",
          "type": "uint256"
        }
      ],
      "name": "JobCompleted",
      "type": "event"
    },
    {
      "anonymous": false,
      "inputs": [
        {
          "indexed": true,
          "internalType": "uint256",
          "name": "id",
          "type": "uint256"
        },
        {
          "indexed": true,
          "internalType": "address",
          "name": "client",
          "type": "address"
        },
        {
          "indexed": false,
          "internalType": "uint256",
          "name": "amount",
          "type": "uint256"
        },
        {
          "indexed": false,
          "internalType": "string",
          "name": "title",
          "type": "string"
        }
      ],
      "name": "JobCreated",
      "type": "event"
    },
    {
      "anonymous": false,
      "inputs": [
        {
          "indexed": true,
          "internalType": "uint256",
          "name": "id",
          "type": "uint256"
        },
        {
          "indexed": false,
          "internalType": "string",
          "name": "comment",
          "type": "string"
        }
      ],
      "name": "JobDisputed",
      "type": "event"
    },
    {
      "anonymous": false,
      "inputs": [
        {
          "indexed": true,
          "internalType": "uint256",
          "name": "id",
          "type": "uint256"
        },
        {
          "indexed": true,
          "internalType": "address",
          "name": "freelancer",
          "type": "address"
        },
        {
          "indexed": false,
          "internalType": "uint256",
          "name": "amount",
          "type": "uint256"
        }
      ],
      "name": "PayoutReleased",
      "type": "event"
    },
    {
      "anonymous": false,
      "inputs": [
        {
          "indexed": true,
          "internalType": "uint256",
          "name": "id",
          "type": "uint256"
        },
        {
          "indexed": false,
          "internalType": "string",
          "name": "workUri",
          "type": "string"
        }
      ],
      "name": "WorkSubmitted",
      "type": "event"
    },
    {
      "inputs": [
        {
          "internalType": "uint256",
          "name": "",
          "type": "uint256"
        }
      ],
      "name": "jobs",
      "outputs": [
        {
          "internalType": "uint256",
          "name": "id",
          "type": "uint256"
        },
        {
          "internalType": "address",
          "name": "client",
          "type": "address"
        },
        {
          "internalType": "address",
          "name": "freelancer",
          "type": "address"
        },
        {
          "internalType": "uint256",
          "name": "amount",
          "type": "uint256"
        },
        {
          "internalType": "enum FreelancePlatform.Status",
          "name": "status",
          "type": "uint8"
        },
        {
          "internalType": "string",
          "name": "title",
          "type": "string"
        },
        {
          "internalType": "string",
          "name": "description",
          "type": "string"
        },
        {
          "internalType": "string",
          "name": "workUri",
          "type": "string"
        },
        {
          "internalType": "uint256",
          "name": "deadline",
          "type": "uint256"
        },
        {
          "internalType": "string",
          "name": "disputeComment",
          "type": "string"
        }
      ],
      "stateMutability": "view",
      "type": "function",
      "constant": true
    },
    {
      "inputs": [],
      "name": "nextJobId",
      "outputs": [
        {
          "internalType": "uint256",
          "name": "",
          "type": "uint256"
        }
      ],
      "stateMutability": "view",
      "type": "function",
      "constant": true
    },
    {
      "inputs": [
        {
          "internalType": "string",
          "name": "_title",
          "type": "string"
        },
        {
          "internalType": "string",
          "name": "_description",
          "type": "string"
        },
        {
          "internalType": "uint256",
          "name": "_deadline",
          "type": "uint256"
        }
      ],
      "name": "createJob",
      "outputs": [],
      "stateMutability": "payable",
      "type": "function",
      "payable": true
    },
    {
      "inputs": [
        {
          "internalType": "uint256",
          "name": "_jobId",
          "type": "uint256"
        }
      ],
      "name": "acceptJob",
      "outputs": [],
      "stateMutability": "nonpayable",
      "type": "function"
    },
    {
      "inputs": [
        {
          "internalType": "uint256",
          "name": "_jobId",
          "type": "uint256"
        },
        {
          "internalType": "string",
          "name": "_workUri",
          "type": "string"
        }
      ],
      "name": "submitWork",
      "outputs": [],
      "stateMutability": "nonpayable",
      "type": "function"
    },
    {
      "inputs": [
        {
          "internalType": "uint256",
          "name": "_jobId",
          "type": "uint256"
        }
      ],
      "name": "markCompleted",
      "outputs": [],
      "stateMutability": "nonpayable",
      "type": "function"
    },
    {
      "inputs": [
        {
          "internalType": "uint256",
          "name": "_jobId",
          "type": "uint256"
        }
      ],
      "name": "cancelJob",
      "outputs": [],
      "stateMutability": "nonpayable",
      "type": "function"
    },
    {
      "inputs": [
        {
          "internalType": "uint256",
          "name": "_jobId",
          "type": "uint256"
        },
        {
          "internalType": "string",
          "name": "_comment",
          "type": "string"
        }
      ],
      "name": "disputeJob",
      "outputs": [],
      "stateMutability": "nonpayable",
      "type": "function"
    },
    {
      "inputs": [
        {
          "internalType": "uint256",
          "name": "_jobId",
          "type": "uint256"
        }
      ],
      "name": "getJob",
      "outputs": [
        {
          "internalType": "uint256",
          "name": "id",
          "type": "uint256"
        },
        {
          "internalType": "address",
          "name": "client",
          "type": "address"
        },
        {
          "internalType": "address",
          "name": "freelancer",
          "type": "address"
        },
        {
          "internalType": "uint256",
          "name": "amount",
          "type": "uint256"
        },
        {
          "internalType": "enum FreelancePlatform.Status",
          "name": "status",
          "type": "uint8"
        },
        {
          "internalType": "string",
          "name": "title",
          "type": "string"
        },
        {
          "internalType": "string",
          "name": "description",
          "type": "string"
        },
        {
          "internalType": "string",
          "name": "workUri",
          "type": "string"
        },
        {
          "internalType": "uint256",
          "name": "deadline",
          "type": "uint256"
        },
        {
          "internalType": "string",
          "name": "disputeComment",
          "type": "string"
        }
      ],
      "stateMutability": "view",
      "type": "function",
      "constant": true
    }
  ],
  "bytecode": "0x608060405234801561001057600080fd5b50612614806100206000396000f3fe6080604052600436106100865760003560e01c8063b0c2aa5e11610059578063b0c2aa5e1461013f578063b3120a271461016a578063bf22c45714610193578063cac5c512146101d9578063da8accf91461020257610086565b8063180aedf31461008b5780631dffa3dc146100d157806363b2f3c9146100fa57806373a06f4214610123575b600080fd5b34801561009757600080fd5b506100b260048036038101906100ad9190611898565b61022b565b6040516100c89a99989796959493929190611a1c565b60405180910390f35b3480156100dd57600080fd5b506100f860048036038101906100f39190611898565b6104ec565b005b34801561010657600080fd5b50610121600480360381019061011c9190611898565b6107a4565b005b61013d60048036038101906101389190611b39565b610a26565b005b34801561014b57600080fd5b50610154610d59565b6040516101619190611bce565b60405180910390f35b34801561017657600080fd5b50610191600480360381019061018c9190611be9565b610d5f565b005b34801561019f57600080fd5b506101ba60048036038101906101b59190611898565b610f2b565b6040516101d09a99989796959493929190611a1c565b60405180910390f35b3480156101e557600080fd5b5061020060048036038101906101fb9190611898565b6112b3565b005b34801561020e57600080fd5b5061022960048036038101906102249190611be9565b6115b4565b005b60016020528060005260406000206000915090508060000154908060010160009054906101000a900473ffffffffffffffffffffffffffffffffffffffff16908060020160009054906101000a900473ffffffffffffffffffffffffffffffffffffffff16908060030154908060040160009054906101000a900460ff16908060050180546102b990611c78565b80601f01602080910402602001604051908101604052809291908181526020018280546102e590611c78565b80156103325780601f1061030757610100808354040283529160200191610332565b820191906000526020600020905b81548152906001019060200180831161031557829003601f168201915b50505050509080600601805461034790611c78565b80601f016020809104026020016040519081016040528092919081815260200182805461037390611c78565b80156103c05780601f10610395576101008083540402835291602001916103c0565b820191906000526020600020905b8154815290600101906020018083116103a357829003601f168201915b5050505050908060070180546103d590611c78565b80601f016020809104026020016040519081016040528092919081815260200182805461040190611c78565b801561044e5780601f106104235761010080835404028352916020019161044e565b820191906000526020600020905b81548152906001019060200180831161043157829003601f168201915b50505050509080600801549080600901805461046990611c78565b80601f016020809104026020016040519081016040528092919081815260200182805461049590611c78565b80156104e25780601f106104b7576101008083540402835291602001916104e2565b820191906000526020600020905b8154815290600101906020018083116104c557829003601f168201915b505050505090508a565b806001600082815260200190815260200160002060010160009054906101000a900473ffffffffffffffffffffffffffffffffffffffff1673ffffffffffffffffffffffffffffffffffffffff163373ffffffffffffffffffffffffffffffffffffffff1614610591576040517f08c379a000000000000000000000000000000000000000000000000000000000815260040161058890611cf5565b60405180910390fd5b6000600160008481526020019081526020016000209050600060058111156105bc576105bb611915565b5b8160040160009054906101000a900460ff1660058111156105e0576105df611915565b5b14806106215750600260058111156105fb576105fa611915565b5b8160040160009054906101000a900460ff16600581111561061f5761061e611915565b5b145b610660576040517f08c379a000000000000000000000000000000000000000000000000000000000815260040161065790611d61565b60405180910390fd5b60048160040160006101000a81548160ff0219169083600581111561068857610687611915565b5b02179055506000816003015490506000826003018190555060008260010160009054906101000a900473ffffffffffffffffffffffffffffffffffffffff1673ffffffffffffffffffffffffffffffffffffffff16826040516106ea90611db2565b60006040518083038185875af1925050503d8060008114610727576040519150601f19603f3d011682016040523d82523d6000602084013e61072c565b606091505b5050905080610770576040517f08c379a000000000000000000000000000000000000000000000000000000000815260040161076790611e13565b60405180910390fd5b847f58243f872c550ad02802199ade99eb4250f6bb19e9abbf2d3de7b969c0eb5e4f60405160405180910390a25050505050565b8060008060058111156107ba576107b9611915565b5b6001600084815260200190815260200160002060040160009054906101000a900460ff1660058111156107f0576107ef611915565b5b14610830576040517f08c379a000000000000000000000000000000000000000000000000000000000815260040161082790611e7f565b60405180910390fd5b6000600160008581526020019081526020016000209050600073ffffffffffffffffffffffffffffffffffffffff168160010160009054906101000a900473ffffffffffffffffffffffffffffffffffffffff1673ffffffffffffffffffffffffffffffffffffffff16036108da576040517f08c379a00000000000000000000000000000000000000000000000000000000081526004016108d190611eeb565b60405180910390fd5b8060010160009054906101000a900473ffffffffffffffffffffffffffffffffffffffff1673ffffffffffffffffffffffffffffffffffffffff163373ffffffffffffffffffffffffffffffffffffffff160361096c576040517f08c379a000000000000000000000000000000000000000000000000000000000815260040161096390611f57565b60405180910390fd5b338160020160006101000a81548173ffffffffffffffffffffffffffffffffffffffff021916908373ffffffffffffffffffffffffffffffffffffffff16021790555060018160040160006101000a81548160ff021916908360058111156109d7576109d6611915565b5b02179055503373ffffffffffffffffffffffffffffffffffffffff16847f4426e4a90a9570c8f678a263b11785eaaade8b79d76d18c43d4d8e00062e4f8360405160405180910390a350505050565b60003411610a69576040517f08c379a0000000000000000000000000000000000000000000000000000000008152600401610a6090611fc3565b60405180910390fd5b6000805490506040518061014001604052808281526020013373ffffffffffffffffffffffffffffffffffffffff168152602001600073ffffffffffffffffffffffffffffffffffffffff16815260200134815260200160006005811115610ad457610ad3611915565b5b815260200187878080601f016020809104026020016040519081016040528093929190818152602001838380828437600081840152601f19601f82011690508083019250505050505050815260200185858080601f016020809104026020016040519081016040528093929190818152602001838380828437600081840152601f19601f82011690508083019250505050505050815260200160405180602001604052806000815250815260200183815260200160405180602001604052806000815250815250600160008381526020019081526020016000206000820151816000015560208201518160010160006101000a81548173ffffffffffffffffffffffffffffffffffffffff021916908373ffffffffffffffffffffffffffffffffffffffff16021790555060408201518160020160006101000a81548173ffffffffffffffffffffffffffffffffffffffff021916908373ffffffffffffffffffffffffffffffffffffffff1602179055506060820151816003015560808201518160040160006101000a81548160ff02191690836005811115610c7b57610c7a611915565b5b021790555060a0820151816005019081610c9591906121be565b5060c0820151816006019081610cab91906121be565b5060e0820151816007019081610cc191906121be565b506101008201518160080155610120820151816009019081610ce391906121be565b50905050600080815480929190610cf9906122bf565b91905055503373ffffffffffffffffffffffffffffffffffffffff16817f6f3a5227c058380f6d30b3c63e04e4b049f2df6d1780f11e4ff1b3e9728a3652348989604051610d4993929190612343565b60405180910390a3505050505050565b60005481565b826001600082815260200190815260200160002060010160009054906101000a900473ffffffffffffffffffffffffffffffffffffffff1673ffffffffffffffffffffffffffffffffffffffff163373ffffffffffffffffffffffffffffffffffffffff1614610e04576040517f08c379a0000000000000000000000000000000000000000000000000000000008152600401610dfb90611cf5565b60405180910390fd5b836002806005811115610e1a57610e19611915565b5b6001600084815260200190815260200160002060040160009054906101000a900460ff166005811115610e5057610e4f611915565b5b14610e90576040517f08c379a0000000000000000000000000000000000000000000000000000000008152600401610e8790611e7f565b60405180910390fd5b600060016000888152602001908152602001600020905060058160040160006101000a81548160ff02191690836005811115610ecf57610ece611915565b5b02179055508585826009019182610ee7929190612380565b50867f07fbb9801776c0d14071848c84304641f9a54ac462b93bbf4c4c10df123a29338787604051610f1a929190612450565b60405180910390a250505050505050565b60008060008060006060806060600060606000600160008d81526020019081526020016000209050600073ffffffffffffffffffffffffffffffffffffffff168160010160009054906101000a900473ffffffffffffffffffffffffffffffffffffffff1673ffffffffffffffffffffffffffffffffffffffff1603610fe6576040517f08c379a0000000000000000000000000000000000000000000000000000000008152600401610fdd90611eeb565b60405180910390fd5b80600001548160010160009054906101000a900473ffffffffffffffffffffffffffffffffffffffff168260020160009054906101000a900473ffffffffffffffffffffffffffffffffffffffff1683600301548460040160009054906101000a900460ff1685600501866006018760070188600801548960090184805461106d90611c78565b80601f016020809104026020016040519081016040528092919081815260200182805461109990611c78565b80156110e65780601f106110bb576101008083540402835291602001916110e6565b820191906000526020600020905b8154815290600101906020018083116110c957829003601f168201915b505050505094508380546110f990611c78565b80601f016020809104026020016040519081016040528092919081815260200182805461112590611c78565b80156111725780601f1061114757610100808354040283529160200191611172565b820191906000526020600020905b81548152906001019060200180831161115557829003601f168201915b5050505050935082805461118590611c78565b80601f01602080910402602001604051908101604052809291908181526020018280546111b190611c78565b80156111fe5780601f106111d3576101008083540402835291602001916111fe565b820191906000526020600020905b8154815290600101906020018083116111e157829003601f168201915b5050505050925080805461121190611c78565b80601f016020809104026020016040519081016040528092919081815260200182805461123d90611c78565b801561128a5780601f1061125f5761010080835404028352916020019161128a565b820191906000526020600020905b81548152906001019060200180831161126d57829003601f168201915b505050505090509a509a509a509a509a509a509a509a509a509a50509193959799509193959799565b806001600082815260200190815260200160002060010160009054906101000a900473ffffffffffffffffffffffffffffffffffffffff1673ffffffffffffffffffffffffffffffffffffffff163373ffffffffffffffffffffffffffffffffffffffff1614611358576040517f08c379a000000000000000000000000000000000000000000000000000000000815260040161134f90611cf5565b60405180910390fd5b81600280600581111561136e5761136d611915565b5b6001600084815260200190815260200160002060040160009054906101000a900460ff1660058111156113a4576113a3611915565b5b146113e4576040517f08c379a00000000000000000000000000000000000000000000000000000000081526004016113db90611e7f565b60405180910390fd5b600060016000868152602001908152602001600020905060038160040160006101000a81548160ff0219169083600581111561142357611422611915565b5b02179055506000816003015490506000826003018190555060008260020160009054906101000a900473ffffffffffffffffffffffffffffffffffffffff1673ffffffffffffffffffffffffffffffffffffffff168260405161148590611db2565b60006040518083038185875af1925050503d80600081146114c2576040519150601f19603f3d011682016040523d82523d6000602084013e6114c7565b606091505b505090508061150b576040517f08c379a0000000000000000000000000000000000000000000000000000000008152600401611502906124c0565b60405180910390fd5b867f02244c8529cb95e213ee542e76e7776342b3dabd10203d01472bbf4441be892960405160405180910390a28260020160009054906101000a900473ffffffffffffffffffffffffffffffffffffffff1673ffffffffffffffffffffffffffffffffffffffff16877f5621778ab13fbf7130d91ae5035a140b79a6cfd120059c2ea0fec2a5ce6731a6846040516115a39190611bce565b60405180910390a350505050505050565b826001600082815260200190815260200160002060020160009054906101000a900473ffffffffffffffffffffffffffffffffffffffff1673ffffffffffffffffffffffffffffffffffffffff163373ffffffffffffffffffffffffffffffffffffffff1614611659576040517f08c379a00000000000000000000000000000000000000000000000000000000081526004016116509061252c565b60405180910390fd5b83600180600581111561166f5761166e611915565b5b6001600084815260200190815260200160002060040160009054906101000a900460ff1660058111156116a5576116a4611915565b5b146116e5576040517f08c379a00000000000000000000000000000000000000000000000000000000081526004016116dc90611e7f565b60405180910390fd5b6000600160008881526020019081526020016000209050600160058111156117105761170f611915565b5b8160040160009054906101000a900460ff16600581111561173457611733611915565b5b1480611774575060058081111561174e5761174d611915565b5b8160040160009054906101000a900460ff16600581111561177257611771611915565b5b145b6117b3576040517f08c379a00000000000000000000000000000000000000000000000000000000081526004016117aa906125be565b60405180910390fd5b60028160040160006101000a81548160ff021916908360058111156117db576117da611915565b5b021790555085858260070191826117f3929190612380565b506040518060200160405280600081525081600901908161181491906121be565b50867f3822c71b106c7c1dabf7f076e68c9bd98c45d0cd0d073f4dcdaf422a0fe558478787604051611847929190612450565b60405180910390a250505050505050565b600080fd5b600080fd5b6000819050919050565b61187581611862565b811461188057600080fd5b50565b6000813590506118928161186c565b92915050565b6000602082840312156118ae576118ad611858565b5b60006118bc84828501611883565b91505092915050565b6118ce81611862565b82525050565b600073ffffffffffffffffffffffffffffffffffffffff82169050919050565b60006118ff826118d4565b9050919050565b61190f816118f4565b82525050565b7f4e487b7100000000000000000000000000000000000000000000000000000000600052602160045260246000fd5b6006811061195557611954611915565b5b50565b600081905061196682611944565b919050565b600061197682611958565b9050919050565b6119868161196b565b82525050565b600081519050919050565b600082825260208201905092915050565b60005b838110156119c65780820151818401526020810190506119ab565b60008484015250505050565b6000601f19601f8301169050919050565b60006119ee8261198c565b6119f88185611997565b9350611a088185602086016119a8565b611a11816119d2565b840191505092915050565b600061014082019050611a32600083018d6118c5565b611a3f602083018c611906565b611a4c604083018b611906565b611a59606083018a6118c5565b611a66608083018961197d565b81810360a0830152611a7881886119e3565b905081810360c0830152611a8c81876119e3565b905081810360e0830152611aa081866119e3565b9050611ab06101008301856118c5565b818103610120830152611ac381846119e3565b90509b9a5050505050505050505050565b600080fd5b600080fd5b600080fd5b60008083601f840112611af957611af8611ad4565b5b8235905067ffffffffffffffff811115611b1657611b15611ad9565b5b602083019150836001820283011115611b3257611b31611ade565b5b9250929050565b600080600080600060608688031215611b5557611b54611858565b5b600086013567ffffffffffffffff811115611b7357611b7261185d565b5b611b7f88828901611ae3565b9550955050602086013567ffffffffffffffff811115611ba257611ba161185d565b5b611bae88828901611ae3565b93509350506040611bc188828901611883565b9150509295509295909350565b6000602082019050611be360008301846118c5565b92915050565b600080600060408486031215611c0257611c01611858565b5b6000611c1086828701611883565b935050602084013567ffffffffffffffff811115611c3157611c3061185d565b5b611c3d86828701611ae3565b92509250509250925092565b7f4e487b7100000000000000000000000000000000000000000000000000000000600052602260045260246000fd5b60006002820490506001821680611c9057607f821691505b602082108103611ca357611ca2611c49565b5b50919050565b7f4e6f74206a6f6220636c69656e74000000000000000000000000000000000000600082015250565b6000611cdf600e83611997565b9150611cea82611ca9565b602082019050919050565b60006020820190508181036000830152611d0e81611cd2565b9050919050565b7f43616e6e6f742063616e63656c20617420746869732073746167650000000000600082015250565b6000611d4b601b83611997565b9150611d5682611d15565b602082019050919050565b60006020820190508181036000830152611d7a81611d3e565b9050919050565b600081905092915050565b50565b6000611d9c600083611d81565b9150611da782611d8c565b600082019050919050565b6000611dbd82611d8f565b9150819050919050565b7f526566756e64206661696c656400000000000000000000000000000000000000600082015250565b6000611dfd600d83611997565b9150611e0882611dc7565b602082019050919050565b60006020820190508181036000830152611e2c81611df0565b9050919050565b7f496e76616c6964206a6f62207374617475730000000000000000000000000000600082015250565b6000611e69601283611997565b9150611e7482611e33565b602082019050919050565b60006020820190508181036000830152611e9881611e5c565b9050919050565b7f4a6f6220646f6573206e6f742065786973740000000000000000000000000000600082015250565b6000611ed5601283611997565b9150611ee082611e9f565b602082019050919050565b60006020820190508181036000830152611f0481611ec8565b9050919050565b7f436c69656e742063616e6e6f7420616363657074206f776e206a6f6200000000600082015250565b6000611f41601c83611997565b9150611f4c82611f0b565b602082019050919050565b60006020820190508181036000830152611f7081611f34565b9050919050565b7f4d7573742073656e64207061796d656e74000000000000000000000000000000600082015250565b6000611fad601183611997565b9150611fb882611f77565b602082019050919050565b60006020820190508181036000830152611fdc81611fa0565b9050919050565b7f4e487b7100000000000000000000000000000000000000000000000000000000600052604160045260246000fd5b60008190508160005260206000209050919050565b60006020601f8301049050919050565b600082821b905092915050565b6000600883026120747fffffffffffffffffffffffffffffffffffffffffffffffffffffffffffffffff82612037565b61207e8683612037565b95508019841693508086168417925050509392505050565b6000819050919050565b60006120bb6120b66120b184611862565b612096565b611862565b9050919050565b6000819050919050565b6120d5836120a0565b6120e96120e1826120c2565b848454612044565b825550505050565b600090565b6120fe6120f1565b6121098184846120cc565b505050565b5b8181101561212d576121226000826120f6565b60018101905061210f565b5050565b601f8211156121725761214381612012565b61214c84612027565b8101602085101561215b578190505b61216f61216785612027565b83018261210e565b50505b505050565b600082821c905092915050565b600061219560001984600802612177565b1980831691505092915050565b60006121ae8383612184565b9150826002028217905092915050565b6121c78261198c565b67ffffffffffffffff8111156121e0576121df611fe3565b5b6121ea8254611c78565b6121f5828285612131565b600060209050601f8311600181146122285760008415612216578287015190505b61222085826121a2565b865550612288565b601f19841661223686612012565b60005b8281101561225e57848901518255600182019150602085019450602081019050612239565b8683101561227b5784890151612277601f891682612184565b8355505b6001600288020188555050505b505050505050565b7f4e487b7100000000000000000000000000000000000000000000000000000000600052601160045260246000fd5b60006122ca82611862565b91507fffffffffffffffffffffffffffffffffffffffffffffffffffffffffffffffff82036122fc576122fb612290565b5b600182019050919050565b82818337600083830152505050565b60006123228385611997565b935061232f838584612307565b612338836119d2565b840190509392505050565b600060408201905061235860008301866118c5565b818103602083015261236b818486612316565b9050949350505050565b600082905092915050565b61238a8383612375565b67ffffffffffffffff8111156123a3576123a2611fe3565b5b6123ad8254611c78565b6123b8828285612131565b6000601f8311600181146123e757600084156123d5578287013590505b6123df85826121a2565b865550612447565b601f1984166123f586612012565b60005b8281101561241d578489013582556001820191506020850194506020810190506123f8565b8683101561243a5784890135612436601f891682612184565b8355505b6001600288020188555050505b50505050505050565b6000602082019050818103600083015261246b818486612316565b90509392505050565b7f5061796f7574206661696c656400000000000000000000000000000000000000600082015250565b60006124aa600d83611997565b91506124b582612474565b602082019050919050565b600060208201905081810360008301526124d98161249d565b9050919050565b7f4e6f74206a6f6220667265656c616e6365720000000000000000000000000000600082015250565b6000612516601283611997565b9150612521826124e0565b602082019050919050565b6000602082019050818103600083015261254581612509565b9050919050565b7f496e76616c69642073746174757320666f72206a6f622073756d62697373696f60008201527f6e00000000000000000000000000000000000000000000000000000000000000602082015250565b60006125a8602183611997565b91506125b38261254c565b604082019050919050565b600060208201905081810360008301526125d78161259b565b905091905056fea2646970667358221220664d63c4d4e50d1177d4ddae92b0e05505262ecba02c581a256fcdfc3d3dc8d364736f6c63430008130033",
  "immutableReferences": {},
  "source": "pragma solidity ^0.8.19;\n\ncontract FreelancePlatform {\n    enum Status {\n        Open,        \n        InProgress,  \n        Submitted,   \n        Completed,   \n        Cancelled,\n        Disputed   \n    }\n\n    struct Job {\n        uint256 id;\n        address client;\n        address freelancer;\n        uint256 amount;      \n        Status status;\n        string title;\n        string description;\n        string workUri;   \n        uint256 deadline;\n        string disputeComment;     \n    }\n\n    uint256 public nextJobId;\n    mapping(uint256 => Job) public jobs;\n\n    event JobCreated(\n        uint256 indexed id,\n        address indexed client,\n        uint256 amount,\n        string title\n    );\n    event JobAccepted(uint256 indexed id, address indexed freelancer);\n    event WorkSubmitted(uint256 indexed id, string workUri);\n    event JobCompleted(uint256 indexed id);\n    event JobCancelled(uint256 indexed id);\n    event PayoutReleased(uint256 indexed id, address indexed freelancer, uint256 amount);\n    event JobDisputed(uint256 indexed id, string comment);\n\n    modifier onlyClient(uint256 _jobId) {\n        require(msg.sender == jobs[_jobId].client, \"Not job client\");\n        _;\n    }\n\n    modifier onlyFreelancer(uint256 _jobId) {\n        require(msg.sender == jobs[_jobId].freelancer, \"Not job freelancer\");\n        _;\n    }\n\n    modifier inStatus(uint256 _jobId, Status _status) {\n        require(jobs[_jobId].status == _status, \"Invalid job status\");\n        _;\n    }\n\n    function createJob(\n        string calldata _title,\n        string calldata _description,\n        uint256 _deadline\n    ) external payable {\n        require(msg.value > 0, \"Must send payment\");\n\n        uint256 jobId = nextJobId;\n        jobs[jobId] = Job({\n            id: jobId,\n            client: msg.sender,\n            freelancer: address(0),\n            amount: msg.value,\n            status: Status.Open,\n            title: _title,\n            description: _description,\n            workUri: \"\",\n            deadline: _deadline,\n            disputeComment: \"\"\n        });\n        nextJobId++;\n\n        emit JobCreated(jobId, msg.sender, msg.value, _title);\n    }\n\n    function acceptJob(uint256 _jobId)\n        external\n        inStatus(_jobId, Status.Open)\n    {\n        Job storage job = jobs[_jobId];\n        require(job.client != address(0), \"Job does not exist\");\n        require(msg.sender != job.client, \"Client cannot accept own job\");\n\n        job.freelancer = msg.sender;\n        job.status = Status.InProgress;\n\n        emit JobAccepted(_jobId, msg.sender);\n    }\n\n    function submitWork(uint256 _jobId, string calldata _workUri)\n        external\n        onlyFreelancer(_jobId)\n        inStatus(_jobId, Status.InProgress)\n    {\n        Job storage job = jobs[_jobId];\n        require(job.status == Status.InProgress || job.status == Status.Disputed, \"Invalid status for job sumbission\");\n        job.status = Status.Submitted;\n        job.workUri = _workUri;\n        job.disputeComment = \"\";\n\n        emit WorkSubmitted(_jobId, _workUri);\n    }\n\n\n    function markCompleted(uint256 _jobId)\n        external\n        onlyClient(_jobId)\n        inStatus(_jobId, Status.Submitted)\n    {\n        Job storage job = jobs[_jobId];\n        job.status = Status.Completed;\n\n        uint256 amount = job.amount;\n        job.amount = 0;\n\n        (bool sent, ) = job.freelancer.call{value: amount}(\"\");\n        require(sent, \"Payout failed\");\n\n        emit JobCompleted(_jobId);\n        emit PayoutReleased(_jobId, job.freelancer, amount);\n    }\n\n    function cancelJob(uint256 _jobId)\n        external\n        onlyClient(_jobId)\n    {\n        Job storage job = jobs[_jobId];\n\n        require(\n            job.status == Status.Open || job.status == Status.Submitted,\n            \"Cannot cancel at this stage\"\n        );\n\n        job.status = Status.Cancelled;\n\n        uint256 amount = job.amount;\n        job.amount = 0;\n\n        (bool sent, ) = job.client.call{value: amount}(\"\");\n        require(sent, \"Refund failed\");\n\n        emit JobCancelled(_jobId);\n    }\n    function disputeJob(uint256 _jobId, string calldata _comment)\n        external\n        onlyClient(_jobId)\n        inStatus(_jobId, Status.Submitted)\n    {\n        Job storage job = jobs[_jobId];\n        job.status = Status.Disputed;\n        job.disputeComment = _comment;\n\n        emit JobDisputed(_jobId, _comment);\n    }\n\n \n\n    function getJob(uint256 _jobId)\n        external\n        view\n        returns (\n            uint256 id,\n            address client,\n            address freelancer,\n            uint256 amount,\n            Status status,\n            string memory title,\n            string memory description,\n            string memory workUri,\n            uint256 deadline,\n            string memory disputeComment\n        )\n    {\n        Job storage j = jobs[_jobId];\n        require(j.client != address(0), \"Job does not exist\");\n        return (\n            j.id,\n            j.client,\n            j.freelancer,\n            j.amount,\n            j.status,\n            j.title,\n            j.description,\n            j.workUri,\n            j.deadline,\n            j.disputeComment\n        );\n    }\n}\n",
  "sourcePath": "/Users/anastasijafedorenko/Desktop/UNI/freelance-blockchain-1/contracts/FreelancePlatform.sol",
  "compiler": {
    "name": "solc",
    "version": "0.8.19+commit.7dd6d404.Emscripten.clang"
  },
  "schemaVersion": "3.4.16",
  "updatedAt": "2025-12-14T11:57:08.095Z",
  "networkType": "ethereum",
  "devdoc": {
    "kind": "dev",
    "methods": {},
    "version": 1
  },
  "userdoc": {
    "kind": "user",
    "methods": {},
    "version": 1
  }
}