{
  "contractName": "FreelancePlatform",
  "abi": [
    {
      "anonymous": false,
      "inputs": [
        {
          "indexed": true,
          "internalType": "uint256",
          "name": "id",
          "type": "uint256"
        },
        {
          "indexed": true,
          "internalType": "address",
          "name": "freelancer",
          "type": "address"
        }
      ],
      "name": "JobAccepted",
      "type": "event"
    },
    {
      "anonymous": false,
      "inputs": [
        {
          "indexed": true,
          "internalType": "uint256",
          "name": "id",
          "type": "uint256"
        }
      ],
      "name": "JobCancelled",
      "type": "event"
    },
    {
      "anonymous": false,
      "inputs": [
        {
          "indexed": true,
          "internalType": "uint256",
          "name": "id",
          "type": "uint256"
        }
      ],
      "name": "JobCompleted",
      "type": "event"
    },
    {
      "anonymous": false,
      "inputs": [
        {
          "indexed": true,
          "internalType": "uint256",
          "name": "id",
          "type": "uint256"
        },
        {
          "indexed": true,
          "internalType": "address",
          "name": "client",
          "type": "address"
        },
        {
          "indexed": false,
          "internalType": "uint256",
          "name": "amount",
          "type": "uint256"
        },
        {
          "indexed": false,
          "internalType": "string",
          "name": "title",
          "type": "string"
        }
      ],
      "name": "JobCreated",
      "type": "event"
    },
    {
      "anonymous": false,
      "inputs": [
        {
          "indexed": true,
          "internalType": "uint256",
          "name": "id",
          "type": "uint256"
        },
        {
          "indexed": false,
          "internalType": "string",
          "name": "comment",
          "type": "string"
        }
      ],
      "name": "JobDisputed",
      "type": "event"
    },
    {
      "anonymous": false,
      "inputs": [
        {
          "indexed": true,
          "internalType": "uint256",
          "name": "id",
          "type": "uint256"
        },
        {
          "indexed": true,
          "internalType": "address",
          "name": "freelancer",
          "type": "address"
        },
        {
          "indexed": false,
          "internalType": "uint256",
          "name": "amount",
          "type": "uint256"
        }
      ],
      "name": "PayoutReleased",
      "type": "event"
    },
    {
      "anonymous": false,
      "inputs": [
        {
          "indexed": true,
          "internalType": "uint256",
          "name": "id",
          "type": "uint256"
        },
        {
          "indexed": false,
          "internalType": "string",
          "name": "workUri",
          "type": "string"
        }
      ],
      "name": "WorkSubmitted",
      "type": "event"
    },
    {
      "inputs": [
        {
          "internalType": "uint256",
          "name": "",
          "type": "uint256"
        }
      ],
      "name": "jobs",
      "outputs": [
        {
          "internalType": "uint256",
          "name": "id",
          "type": "uint256"
        },
        {
          "internalType": "address",
          "name": "client",
          "type": "address"
        },
        {
          "internalType": "address",
          "name": "freelancer",
          "type": "address"
        },
        {
          "internalType": "uint256",
          "name": "amount",
          "type": "uint256"
        },
        {
          "internalType": "enum FreelancePlatform.Status",
          "name": "status",
          "type": "uint8"
        },
        {
          "internalType": "string",
          "name": "title",
          "type": "string"
        },
        {
          "internalType": "string",
          "name": "description",
          "type": "string"
        },
        {
          "internalType": "string",
          "name": "workUri",
          "type": "string"
        },
        {
          "internalType": "uint256",
          "name": "deadline",
          "type": "uint256"
        },
        {
          "internalType": "string",
          "name": "disputeComment",
          "type": "string"
        }
      ],
      "stateMutability": "view",
      "type": "function",
      "constant": true
    },
    {
      "inputs": [],
      "name": "nextJobId",
      "outputs": [
        {
          "internalType": "uint256",
          "name": "",
          "type": "uint256"
        }
      ],
      "stateMutability": "view",
      "type": "function",
      "constant": true
    },
    {
      "inputs": [
        {
          "internalType": "string",
          "name": "_title",
          "type": "string"
        },
        {
          "internalType": "string",
          "name": "_description",
          "type": "string"
        },
        {
          "internalType": "uint256",
          "name": "_deadline",
          "type": "uint256"
        }
      ],
      "name": "createJob",
      "outputs": [],
      "stateMutability": "payable",
      "type": "function",
      "payable": true
    },
    {
      "inputs": [
        {
          "internalType": "uint256",
          "name": "_jobId",
          "type": "uint256"
        }
      ],
      "name": "acceptJob",
      "outputs": [],
      "stateMutability": "nonpayable",
      "type": "function"
    },
    {
      "inputs": [
        {
          "internalType": "uint256",
          "name": "_jobId",
          "type": "uint256"
        },
        {
          "internalType": "string",
          "name": "_workUri",
          "type": "string"
        }
      ],
      "name": "submitWork",
      "outputs": [],
      "stateMutability": "nonpayable",
      "type": "function"
    },
    {
      "inputs": [
        {
          "internalType": "uint256",
          "name": "_jobId",
          "type": "uint256"
        }
      ],
      "name": "markCompleted",
      "outputs": [],
      "stateMutability": "nonpayable",
      "type": "function"
    },
    {
      "inputs": [
        {
          "internalType": "uint256",
          "name": "_jobId",
          "type": "uint256"
        }
      ],
      "name": "freelancerCancelJob",
      "outputs": [],
      "stateMutability": "nonpayable",
      "type": "function"
    },
    {
      "inputs": [
        {
          "internalType": "uint256",
          "name": "_jobId",
          "type": "uint256"
        },
        {
          "internalType": "string",
          "name": "_comment",
          "type": "string"
        }
      ],
      "name": "disputeJob",
      "outputs": [],
      "stateMutability": "nonpayable",
      "type": "function"
    },
    {
      "inputs": [
        {
          "internalType": "uint256",
          "name": "_jobId",
          "type": "uint256"
        }
      ],
      "name": "getJob",
      "outputs": [
        {
          "internalType": "uint256",
          "name": "id",
          "type": "uint256"
        },
        {
          "internalType": "address",
          "name": "client",
          "type": "address"
        },
        {
          "internalType": "address",
          "name": "freelancer",
          "type": "address"
        },
        {
          "internalType": "uint256",
          "name": "amount",
          "type": "uint256"
        },
        {
          "internalType": "enum FreelancePlatform.Status",
          "name": "status",
          "type": "uint8"
        },
        {
          "internalType": "string",
          "name": "title",
          "type": "string"
        },
        {
          "internalType": "string",
          "name": "description",
          "type": "string"
        },
        {
          "internalType": "string",
          "name": "workUri",
          "type": "string"
        },
        {
          "internalType": "uint256",
          "name": "deadline",
          "type": "uint256"
        },
        {
          "internalType": "string",
          "name": "disputeComment",
          "type": "string"
        }
      ],
      "stateMutability": "view",
      "type": "function",
      "constant": true
    }
  ],
  "bytecode": "0x608060405234801561001057600080fd5b506127a5806100206000396000f3fe6080604052600436106100865760003560e01c8063b3120a2711610059578063b3120a2714610141578063bf22c4571461016a578063cac5c512146101b0578063d8593929146101d9578063da8accf91461020257610086565b8063180aedf31461008b57806363b2f3c9146100d157806373a06f42146100fa578063b0c2aa5e14610116575b600080fd5b34801561009757600080fd5b506100b260048036038101906100ad9190611997565b61022b565b6040516100c89a99989796959493929190611b1b565b60405180910390f35b3480156100dd57600080fd5b506100f860048036038101906100f39190611997565b6104ec565b005b610114600480360381019061010f9190611c38565b61076e565b005b34801561012257600080fd5b5061012b610aa1565b6040516101389190611ccd565b60405180910390f35b34801561014d57600080fd5b5061016860048036038101906101639190611ce8565b610aa7565b005b34801561017657600080fd5b50610191600480360381019061018c9190611997565b610c73565b6040516101a79a99989796959493929190611b1b565b60405180910390f35b3480156101bc57600080fd5b506101d760048036038101906101d29190611997565b610ffb565b005b3480156101e557600080fd5b5061020060048036038101906101fb9190611997565b6112fc565b005b34801561020e57600080fd5b5061022960048036038101906102249190611ce8565b61169c565b005b60016020528060005260406000206000915090508060000154908060010160009054906101000a900473ffffffffffffffffffffffffffffffffffffffff16908060020160009054906101000a900473ffffffffffffffffffffffffffffffffffffffff16908060030154908060040160009054906101000a900460ff16908060050180546102b990611d77565b80601f01602080910402602001604051908101604052809291908181526020018280546102e590611d77565b80156103325780601f1061030757610100808354040283529160200191610332565b820191906000526020600020905b81548152906001019060200180831161031557829003601f168201915b50505050509080600601805461034790611d77565b80601f016020809104026020016040519081016040528092919081815260200182805461037390611d77565b80156103c05780601f10610395576101008083540402835291602001916103c0565b820191906000526020600020905b8154815290600101906020018083116103a357829003601f168201915b5050505050908060070180546103d590611d77565b80601f016020809104026020016040519081016040528092919081815260200182805461040190611d77565b801561044e5780601f106104235761010080835404028352916020019161044e565b820191906000526020600020905b81548152906001019060200180831161043157829003601f168201915b50505050509080600801549080600901805461046990611d77565b80601f016020809104026020016040519081016040528092919081815260200182805461049590611d77565b80156104e25780601f106104b7576101008083540402835291602001916104e2565b820191906000526020600020905b8154815290600101906020018083116104c557829003601f168201915b505050505090508a565b80600080600581111561050257610501611a14565b5b6001600084815260200190815260200160002060040160009054906101000a900460ff16600581111561053857610537611a14565b5b14610578576040517f08c379a000000000000000000000000000000000000000000000000000000000815260040161056f90611df4565b60405180910390fd5b6000600160008581526020019081526020016000209050600073ffffffffffffffffffffffffffffffffffffffff168160010160009054906101000a900473ffffffffffffffffffffffffffffffffffffffff1673ffffffffffffffffffffffffffffffffffffffff1603610622576040517f08c379a000000000000000000000000000000000000000000000000000000000815260040161061990611e60565b60405180910390fd5b8060010160009054906101000a900473ffffffffffffffffffffffffffffffffffffffff1673ffffffffffffffffffffffffffffffffffffffff163373ffffffffffffffffffffffffffffffffffffffff16036106b4576040517f08c379a00000000000000000000000000000000000000000000000000000000081526004016106ab90611ecc565b60405180910390fd5b338160020160006101000a81548173ffffffffffffffffffffffffffffffffffffffff021916908373ffffffffffffffffffffffffffffffffffffffff16021790555060018160040160006101000a81548160ff0219169083600581111561071f5761071e611a14565b5b02179055503373ffffffffffffffffffffffffffffffffffffffff16847f4426e4a90a9570c8f678a263b11785eaaade8b79d76d18c43d4d8e00062e4f8360405160405180910390a350505050565b600034116107b1576040517f08c379a00000000000000000000000000000000000000000000000000000000081526004016107a890611f38565b60405180910390fd5b6000805490506040518061014001604052808281526020013373ffffffffffffffffffffffffffffffffffffffff168152602001600073ffffffffffffffffffffffffffffffffffffffff1681526020013481526020016000600581111561081c5761081b611a14565b5b815260200187878080601f016020809104026020016040519081016040528093929190818152602001838380828437600081840152601f19601f82011690508083019250505050505050815260200185858080601f016020809104026020016040519081016040528093929190818152602001838380828437600081840152601f19601f82011690508083019250505050505050815260200160405180602001604052806000815250815260200183815260200160405180602001604052806000815250815250600160008381526020019081526020016000206000820151816000015560208201518160010160006101000a81548173ffffffffffffffffffffffffffffffffffffffff021916908373ffffffffffffffffffffffffffffffffffffffff16021790555060408201518160020160006101000a81548173ffffffffffffffffffffffffffffffffffffffff021916908373ffffffffffffffffffffffffffffffffffffffff1602179055506060820151816003015560808201518160040160006101000a81548160ff021916908360058111156109c3576109c2611a14565b5b021790555060a08201518160050190816109dd9190612133565b5060c08201518160060190816109f39190612133565b5060e0820151816007019081610a099190612133565b506101008201518160080155610120820151816009019081610a2b9190612133565b50905050600080815480929190610a4190612234565b91905055503373ffffffffffffffffffffffffffffffffffffffff16817f6f3a5227c058380f6d30b3c63e04e4b049f2df6d1780f11e4ff1b3e9728a3652348989604051610a91939291906122b8565b60405180910390a3505050505050565b60005481565b826001600082815260200190815260200160002060010160009054906101000a900473ffffffffffffffffffffffffffffffffffffffff1673ffffffffffffffffffffffffffffffffffffffff163373ffffffffffffffffffffffffffffffffffffffff1614610b4c576040517f08c379a0000000000000000000000000000000000000000000000000000000008152600401610b4390612336565b60405180910390fd5b836002806005811115610b6257610b61611a14565b5b6001600084815260200190815260200160002060040160009054906101000a900460ff166005811115610b9857610b97611a14565b5b14610bd8576040517f08c379a0000000000000000000000000000000000000000000000000000000008152600401610bcf90611df4565b60405180910390fd5b600060016000888152602001908152602001600020905060058160040160006101000a81548160ff02191690836005811115610c1757610c16611a14565b5b02179055508585826009019182610c2f929190612361565b50867f07fbb9801776c0d14071848c84304641f9a54ac462b93bbf4c4c10df123a29338787604051610c62929190612431565b60405180910390a250505050505050565b60008060008060006060806060600060606000600160008d81526020019081526020016000209050600073ffffffffffffffffffffffffffffffffffffffff168160010160009054906101000a900473ffffffffffffffffffffffffffffffffffffffff1673ffffffffffffffffffffffffffffffffffffffff1603610d2e576040517f08c379a0000000000000000000000000000000000000000000000000000000008152600401610d2590611e60565b60405180910390fd5b80600001548160010160009054906101000a900473ffffffffffffffffffffffffffffffffffffffff168260020160009054906101000a900473ffffffffffffffffffffffffffffffffffffffff1683600301548460040160009054906101000a900460ff16856005018660060187600701886008015489600901848054610db590611d77565b80601f0160208091040260200160405190810160405280929190818152602001828054610de190611d77565b8015610e2e5780601f10610e0357610100808354040283529160200191610e2e565b820191906000526020600020905b815481529060010190602001808311610e1157829003601f168201915b50505050509450838054610e4190611d77565b80601f0160208091040260200160405190810160405280929190818152602001828054610e6d90611d77565b8015610eba5780601f10610e8f57610100808354040283529160200191610eba565b820191906000526020600020905b815481529060010190602001808311610e9d57829003601f168201915b50505050509350828054610ecd90611d77565b80601f0160208091040260200160405190810160405280929190818152602001828054610ef990611d77565b8015610f465780601f10610f1b57610100808354040283529160200191610f46565b820191906000526020600020905b815481529060010190602001808311610f2957829003601f168201915b50505050509250808054610f5990611d77565b80601f0160208091040260200160405190810160405280929190818152602001828054610f8590611d77565b8015610fd25780601f10610fa757610100808354040283529160200191610fd2565b820191906000526020600020905b815481529060010190602001808311610fb557829003601f168201915b505050505090509a509a509a509a509a509a509a509a509a509a50509193959799509193959799565b806001600082815260200190815260200160002060010160009054906101000a900473ffffffffffffffffffffffffffffffffffffffff1673ffffffffffffffffffffffffffffffffffffffff163373ffffffffffffffffffffffffffffffffffffffff16146110a0576040517f08c379a000000000000000000000000000000000000000000000000000000000815260040161109790612336565b60405180910390fd5b8160028060058111156110b6576110b5611a14565b5b6001600084815260200190815260200160002060040160009054906101000a900460ff1660058111156110ec576110eb611a14565b5b1461112c576040517f08c379a000000000000000000000000000000000000000000000000000000000815260040161112390611df4565b60405180910390fd5b600060016000868152602001908152602001600020905060038160040160006101000a81548160ff0219169083600581111561116b5761116a611a14565b5b02179055506000816003015490506000826003018190555060008260020160009054906101000a900473ffffffffffffffffffffffffffffffffffffffff1673ffffffffffffffffffffffffffffffffffffffff16826040516111cd90612486565b60006040518083038185875af1925050503d806000811461120a576040519150601f19603f3d011682016040523d82523d6000602084013e61120f565b606091505b5050905080611253576040517f08c379a000000000000000000000000000000000000000000000000000000000815260040161124a906124e7565b60405180910390fd5b867f02244c8529cb95e213ee542e76e7776342b3dabd10203d01472bbf4441be892960405160405180910390a28260020160009054906101000a900473ffffffffffffffffffffffffffffffffffffffff1673ffffffffffffffffffffffffffffffffffffffff16877f5621778ab13fbf7130d91ae5035a140b79a6cfd120059c2ea0fec2a5ce6731a6846040516112eb9190611ccd565b60405180910390a350505050505050565b80600073ffffffffffffffffffffffffffffffffffffffff166001600083815260200190815260200160002060020160009054906101000a900473ffffffffffffffffffffffffffffffffffffffff1673ffffffffffffffffffffffffffffffffffffffff16036113a2576040517f08c379a000000000000000000000000000000000000000000000000000000000815260040161139990612553565b60405180910390fd5b6001600082815260200190815260200160002060020160009054906101000a900473ffffffffffffffffffffffffffffffffffffffff1673ffffffffffffffffffffffffffffffffffffffff163373ffffffffffffffffffffffffffffffffffffffff1614611446576040517f08c379a000000000000000000000000000000000000000000000000000000000815260040161143d906125bf565b60405180910390fd5b60006001600084815260200190815260200160002090506001600581111561147157611470611a14565b5b8160040160009054906101000a900460ff16600581111561149557611494611a14565b5b14806114d557506005808111156114af576114ae611a14565b5b8160040160009054906101000a900460ff1660058111156114d3576114d2611a14565b5b145b611514576040517f08c379a000000000000000000000000000000000000000000000000000000000815260040161150b90612651565b60405180910390fd5b60048160040160006101000a81548160ff0219169083600581111561153c5761153b611a14565b5b02179055506000816003015490506000826003018190555060008260010160009054906101000a900473ffffffffffffffffffffffffffffffffffffffff1673ffffffffffffffffffffffffffffffffffffffff168260405161159e90612486565b60006040518083038185875af1925050503d80600081146115db576040519150601f19603f3d011682016040523d82523d6000602084013e6115e0565b606091505b5050905080611624576040517f08c379a000000000000000000000000000000000000000000000000000000000815260040161161b906126bd565b60405180910390fd5b60008360020160006101000a81548173ffffffffffffffffffffffffffffffffffffffff021916908373ffffffffffffffffffffffffffffffffffffffff160217905550847f58243f872c550ad02802199ade99eb4250f6bb19e9abbf2d3de7b969c0eb5e4f60405160405180910390a25050505050565b82600073ffffffffffffffffffffffffffffffffffffffff166001600083815260200190815260200160002060020160009054906101000a900473ffffffffffffffffffffffffffffffffffffffff1673ffffffffffffffffffffffffffffffffffffffff1603611742576040517f08c379a000000000000000000000000000000000000000000000000000000000815260040161173990612553565b60405180910390fd5b6001600082815260200190815260200160002060020160009054906101000a900473ffffffffffffffffffffffffffffffffffffffff1673ffffffffffffffffffffffffffffffffffffffff163373ffffffffffffffffffffffffffffffffffffffff16146117e6576040517f08c379a00000000000000000000000000000000000000000000000000000000081526004016117dd906125bf565b60405180910390fd5b60006001600086815260200190815260200160002090506001600581111561181157611810611a14565b5b8160040160009054906101000a900460ff16600581111561183557611834611a14565b5b1480611875575060058081111561184f5761184e611a14565b5b8160040160009054906101000a900460ff16600581111561187357611872611a14565b5b145b6118b4576040517f08c379a00000000000000000000000000000000000000000000000000000000081526004016118ab9061274f565b60405180910390fd5b60028160040160006101000a81548160ff021916908360058111156118dc576118db611a14565b5b021790555083838260070191826118f4929190612361565b50604051806020016040528060008152508160090190816119159190612133565b50847f3822c71b106c7c1dabf7f076e68c9bd98c45d0cd0d073f4dcdaf422a0fe558478585604051611948929190612431565b60405180910390a25050505050565b600080fd5b600080fd5b6000819050919050565b61197481611961565b811461197f57600080fd5b50565b6000813590506119918161196b565b92915050565b6000602082840312156119ad576119ac611957565b5b60006119bb84828501611982565b91505092915050565b6119cd81611961565b82525050565b600073ffffffffffffffffffffffffffffffffffffffff82169050919050565b60006119fe826119d3565b9050919050565b611a0e816119f3565b82525050565b7f4e487b7100000000000000000000000000000000000000000000000000000000600052602160045260246000fd5b60068110611a5457611a53611a14565b5b50565b6000819050611a6582611a43565b919050565b6000611a7582611a57565b9050919050565b611a8581611a6a565b82525050565b600081519050919050565b600082825260208201905092915050565b60005b83811015611ac5578082015181840152602081019050611aaa565b60008484015250505050565b6000601f19601f8301169050919050565b6000611aed82611a8b565b611af78185611a96565b9350611b07818560208601611aa7565b611b1081611ad1565b840191505092915050565b600061014082019050611b31600083018d6119c4565b611b3e602083018c611a05565b611b4b604083018b611a05565b611b58606083018a6119c4565b611b656080830189611a7c565b81810360a0830152611b778188611ae2565b905081810360c0830152611b8b8187611ae2565b905081810360e0830152611b9f8186611ae2565b9050611baf6101008301856119c4565b818103610120830152611bc28184611ae2565b90509b9a5050505050505050505050565b600080fd5b600080fd5b600080fd5b60008083601f840112611bf857611bf7611bd3565b5b8235905067ffffffffffffffff811115611c1557611c14611bd8565b5b602083019150836001820283011115611c3157611c30611bdd565b5b9250929050565b600080600080600060608688031215611c5457611c53611957565b5b600086013567ffffffffffffffff811115611c7257611c7161195c565b5b611c7e88828901611be2565b9550955050602086013567ffffffffffffffff811115611ca157611ca061195c565b5b611cad88828901611be2565b93509350506040611cc088828901611982565b9150509295509295909350565b6000602082019050611ce260008301846119c4565b92915050565b600080600060408486031215611d0157611d00611957565b5b6000611d0f86828701611982565b935050602084013567ffffffffffffffff811115611d3057611d2f61195c565b5b611d3c86828701611be2565b92509250509250925092565b7f4e487b7100000000000000000000000000000000000000000000000000000000600052602260045260246000fd5b60006002820490506001821680611d8f57607f821691505b602082108103611da257611da1611d48565b5b50919050565b7f496e76616c6964206a6f62207374617475730000000000000000000000000000600082015250565b6000611dde601283611a96565b9150611de982611da8565b602082019050919050565b60006020820190508181036000830152611e0d81611dd1565b9050919050565b7f4a6f6220646f6573206e6f742065786973740000000000000000000000000000600082015250565b6000611e4a601283611a96565b9150611e5582611e14565b602082019050919050565b60006020820190508181036000830152611e7981611e3d565b9050919050565b7f436c69656e742063616e6e6f7420616363657074206f776e206a6f6200000000600082015250565b6000611eb6601c83611a96565b9150611ec182611e80565b602082019050919050565b60006020820190508181036000830152611ee581611ea9565b9050919050565b7f4d7573742073656e64207061796d656e74000000000000000000000000000000600082015250565b6000611f22601183611a96565b9150611f2d82611eec565b602082019050919050565b60006020820190508181036000830152611f5181611f15565b9050919050565b7f4e487b7100000000000000000000000000000000000000000000000000000000600052604160045260246000fd5b60008190508160005260206000209050919050565b60006020601f8301049050919050565b600082821b905092915050565b600060088302611fe97fffffffffffffffffffffffffffffffffffffffffffffffffffffffffffffffff82611fac565b611ff38683611fac565b95508019841693508086168417925050509392505050565b6000819050919050565b600061203061202b61202684611961565b61200b565b611961565b9050919050565b6000819050919050565b61204a83612015565b61205e61205682612037565b848454611fb9565b825550505050565b600090565b612073612066565b61207e818484612041565b505050565b5b818110156120a25761209760008261206b565b600181019050612084565b5050565b601f8211156120e7576120b881611f87565b6120c184611f9c565b810160208510156120d0578190505b6120e46120dc85611f9c565b830182612083565b50505b505050565b600082821c905092915050565b600061210a600019846008026120ec565b1980831691505092915050565b600061212383836120f9565b9150826002028217905092915050565b61213c82611a8b565b67ffffffffffffffff81111561215557612154611f58565b5b61215f8254611d77565b61216a8282856120a6565b600060209050601f83116001811461219d576000841561218b578287015190505b6121958582612117565b8655506121fd565b601f1984166121ab86611f87565b60005b828110156121d3578489015182556001820191506020850194506020810190506121ae565b868310156121f057848901516121ec601f8916826120f9565b8355505b6001600288020188555050505b505050505050565b7f4e487b7100000000000000000000000000000000000000000000000000000000600052601160045260246000fd5b600061223f82611961565b91507fffffffffffffffffffffffffffffffffffffffffffffffffffffffffffffffff820361227157612270612205565b5b600182019050919050565b82818337600083830152505050565b60006122978385611a96565b93506122a483858461227c565b6122ad83611ad1565b840190509392505050565b60006040820190506122cd60008301866119c4565b81810360208301526122e081848661228b565b9050949350505050565b7f4e6f74206a6f6220636c69656e74000000000000000000000000000000000000600082015250565b6000612320600e83611a96565b915061232b826122ea565b602082019050919050565b6000602082019050818103600083015261234f81612313565b9050919050565b600082905092915050565b61236b8383612356565b67ffffffffffffffff81111561238457612383611f58565b5b61238e8254611d77565b6123998282856120a6565b6000601f8311600181146123c857600084156123b6578287013590505b6123c08582612117565b865550612428565b601f1984166123d686611f87565b60005b828110156123fe578489013582556001820191506020850194506020810190506123d9565b8683101561241b5784890135612417601f8916826120f9565b8355505b6001600288020188555050505b50505050505050565b6000602082019050818103600083015261244c81848661228b565b90509392505050565b600081905092915050565b50565b6000612470600083612455565b915061247b82612460565b600082019050919050565b600061249182612463565b9150819050919050565b7f5061796f7574206661696c656400000000000000000000000000000000000000600082015250565b60006124d1600d83611a96565b91506124dc8261249b565b602082019050919050565b60006020820190508181036000830152612500816124c4565b9050919050565b7f4a6f62206e6f7420616363657074656420796574000000000000000000000000600082015250565b600061253d601483611a96565b915061254882612507565b602082019050919050565b6000602082019050818103600083015261256c81612530565b9050919050565b7f4e6f74206a6f6220667265656c616e6365720000000000000000000000000000600082015250565b60006125a9601283611a96565b91506125b482612573565b602082019050919050565b600060208201905081810360008301526125d88161259c565b9050919050565b7f467265656c616e6365722063616e206f6e6c792063616e63656c206a6f62732060008201527f746861742061726520496e2050726f6772657373000000000000000000000000602082015250565b600061263b603483611a96565b9150612646826125df565b604082019050919050565b6000602082019050818103600083015261266a8161262e565b9050919050565b7f526566756e64206661696c656400000000000000000000000000000000000000600082015250565b60006126a7600d83611a96565b91506126b282612671565b602082019050919050565b600060208201905081810360008301526126d68161269a565b9050919050565b7f496e76616c69642073746174757320666f72206a6f622073756d62697373696f60008201527f6e00000000000000000000000000000000000000000000000000000000000000602082015250565b6000612739602183611a96565b9150612744826126dd565b604082019050919050565b600060208201905081810360008301526127688161272c565b905091905056fea264697066735822122071851a25ca7ad7bcff2a3e770b4b9426e0584dac8d1217f212cf5379f97638a964736f6c63430008130033",
  "immutableReferences": {},
  "source": "pragma solidity ^0.8.19;\n\ncontract FreelancePlatform {\n    enum Status {\n        Open,        \n        InProgress,  \n        Submitted,   \n        Completed,   \n        Cancelled,\n        Disputed   \n    }\n\n    struct Job {\n        uint256 id;\n        address client;\n        address freelancer;\n        uint256 amount;      \n        Status status;\n        string title;\n        string description;\n        string workUri;   \n        uint256 deadline;\n        string disputeComment;     \n    }\n\n    uint256 public nextJobId;\n    mapping(uint256 => Job) public jobs;\n\n    event JobCreated(\n        uint256 indexed id,\n        address indexed client,\n        uint256 amount,\n        string title\n    );\n    event JobAccepted(uint256 indexed id, address indexed freelancer);\n    event WorkSubmitted(uint256 indexed id, string workUri);\n    event JobCompleted(uint256 indexed id);\n    event JobCancelled(uint256 indexed id);\n    event PayoutReleased(uint256 indexed id, address indexed freelancer, uint256 amount);\n    event JobDisputed(uint256 indexed id, string comment);\n\n    modifier onlyClient(uint256 _jobId) {\n        require(msg.sender == jobs[_jobId].client, \"Not job client\");\n        _;\n    }\n\n    modifier onlyFreelancer(uint256 _jobId) {\n        require(jobs[_jobId].freelancer != address(0), \"Job not accepted yet\");\n        require(msg.sender == jobs[_jobId].freelancer, \"Not job freelancer\");\n        _;\n    }\n\n    modifier inStatus(uint256 _jobId, Status _status) {\n        require(jobs[_jobId].status == _status, \"Invalid job status\");\n        _;\n    }\n\n    function createJob(\n        string calldata _title,\n        string calldata _description,\n        uint256 _deadline\n    ) external payable {\n        require(msg.value > 0, \"Must send payment\");\n\n        uint256 jobId = nextJobId;\n        jobs[jobId] = Job({\n            id: jobId,\n            client: msg.sender,\n            freelancer: address(0),\n            amount: msg.value,\n            status: Status.Open,\n            title: _title,\n            description: _description,\n            workUri: \"\",\n            deadline: _deadline,\n            disputeComment: \"\"\n        });\n        nextJobId++;\n\n        emit JobCreated(jobId, msg.sender, msg.value, _title);\n    }\n\n    function acceptJob(uint256 _jobId)\n        external\n        inStatus(_jobId, Status.Open)\n    {\n        Job storage job = jobs[_jobId];\n        require(job.client != address(0), \"Job does not exist\");\n        require(msg.sender != job.client, \"Client cannot accept own job\");\n\n        job.freelancer = msg.sender;\n        job.status = Status.InProgress;\n\n        emit JobAccepted(_jobId, msg.sender);\n    }\n\n    function submitWork(uint256 _jobId, string calldata _workUri)\n        external\n        onlyFreelancer(_jobId)\n    {\n        Job storage job = jobs[_jobId];\n        require(job.status == Status.InProgress || job.status == Status.Disputed, \"Invalid status for job sumbission\");\n        job.status = Status.Submitted;\n        job.workUri = _workUri;\n        job.disputeComment = \"\";\n\n        emit WorkSubmitted(_jobId, _workUri);\n    }\n\n\n    function markCompleted(uint256 _jobId)\n        external\n        onlyClient(_jobId)\n        inStatus(_jobId, Status.Submitted)\n    {\n        Job storage job = jobs[_jobId];\n        job.status = Status.Completed;\n\n        uint256 amount = job.amount;\n        job.amount = 0;\n\n        (bool sent, ) = job.freelancer.call{value: amount}(\"\");\n        require(sent, \"Payout failed\");\n\n        emit JobCompleted(_jobId);\n        emit PayoutReleased(_jobId, job.freelancer, amount);\n    }\n\n    \n\n    function freelancerCancelJob(uint256 _jobId)\n        external\n        onlyFreelancer(_jobId)\n  \n    {\n        Job storage job = jobs[_jobId];\n        require(\n            job.status == Status.InProgress || job.status == Status.Disputed,\n            \"Freelancer can only cancel jobs that are In Progress\"\n        );\n        job.status = Status.Cancelled;\n        uint256 amount = job.amount;\n        job.amount = 0;\n        (bool sent, ) = job.client.call{value: amount}(\"\");\n        require(sent, \"Refund failed\");\n        job.freelancer = address(0);\n\n\n        emit JobCancelled(_jobId);\n    }\n    function disputeJob(uint256 _jobId, string calldata _comment)\n        external\n        onlyClient(_jobId)\n        inStatus(_jobId, Status.Submitted)\n    {\n        Job storage job = jobs[_jobId];\n        job.status = Status.Disputed;\n        job.disputeComment = _comment;\n\n        emit JobDisputed(_jobId, _comment);\n    }\n\n \n\n    function getJob(uint256 _jobId)\n        external\n        view\n        returns (\n            uint256 id,\n            address client,\n            address freelancer,\n            uint256 amount,\n            Status status,\n            string memory title,\n            string memory description,\n            string memory workUri,\n            uint256 deadline,\n            string memory disputeComment\n        )\n    {\n        Job storage j = jobs[_jobId];\n        require(j.client != address(0), \"Job does not exist\");\n        return (\n            j.id,\n            j.client,\n            j.freelancer,\n            j.amount,\n            j.status,\n            j.title,\n            j.description,\n            j.workUri,\n            j.deadline,\n            j.disputeComment\n        );\n    }\n}\n",
  "sourcePath": "/Users/anastasijafedorenko/Desktop/UNI/freelance-blockchain-1/contracts/FreelancePlatform.sol",
  "compiler": {
    "name": "solc",
    "version": "0.8.19+commit.7dd6d404.Emscripten.clang"
  },
  "schemaVersion": "3.4.16",
  "updatedAt": "2025-12-14T18:37:56.549Z",
  "networkType": "ethereum",
  "devdoc": {
    "kind": "dev",
    "methods": {},
    "version": 1
  },
  "userdoc": {
    "kind": "user",
    "methods": {},
    "version": 1
  }
}